:0400000080311B2808
:100008007E1480314E010C1E11288431FC2480316D
:10001800833174238031400118124E018D1C192838
:1000280085310125803183317B237E1009008031A1
:100038001D28F801F901FA01FB01FC01FD0140014D
:10004800A030BA01BB01BC01BD01840000308500AD
:1000580040308431F62480317E104001332804304A
:1000680051019300FC2280310730A9228031F92206
:10007800803158208031AE22803101238031A62280
:100088008031A22280316300000005238031003ACC
:100098000319492809238031003A03195528672094
:1000A8008031630000004928EC2280314B228031E6
:1000B800003A0319602893227E01CE013A164001C6
:1000C800121218160800132380314001181616233F
:1000D80080314D228031003A031D78286822803112
:1000E800A2224001181208000030612280316622E5
:1000F80080313C0E033903199C28752280319C28D5
:10010800932280317228B5208031DC218031102281
:1001180080317228EE218031472180317228B52044
:100128008031EE218031DC2180311022803190280D
:1001380040013C0E0339B800B9013908003A0319E7
:10014800A62872283808003A03198428013A0319A6
:100158008728033A03198E28013A0319932872282D
:10016800080040013C0C890C0339090709070907F5
:10017800B6001408AD001A08AE0010238031400103
:10018800AF000D2380314001B0007E014F084001CF
:10019800B1007E0152084001B2007E0150084001C2
:1001A800B3007E0151084001B400D7218031B70166
:1001B800083037020318F6283708A800A030A835F9
:1001C8002807A90036352907AA00860000308701CC
:1001D800C03FC13F37082D3E86000108A02180316D
:1001E800B70ADC28DA218031B500C039A800A90196
:1001F800A835A90DA835A90D3635A03E562380315E
:100208003039A800F030A901A80EA90EA9052808C0
:100218000F39A904F030A8053635A23E5E23803197
:1002280035080C39A8000630A901A835A90D890B95
:1002380019293635A43E562380310339A800A9016F
:10024800A900A8013635A63E5E238031B7010830E3
:1002580037020318080037082D3E86008701010879
:10026800A800A9013708AA00A030AA352A07AB00C0
:1002780036352B07AC00860028088104413129084F
:100288008104B70A2B294001B5013C080339090745
:1002980009070907B600B701D721803104303702B2
:1002A80003187729B535B535432380318600870192
:1002B800403FAB00413FAC00B50437082D3E8600F7
:1002C800432380314D238031A0218031B70A522940
:1002D80037082D3E86008701432380314D23803126
:1002E800A0218031B70A08303702031C6C29DA21B3
:1002F80080313506031D9E292D0894002E089A008A
:100308002F0870228031400130086B228031400173
:1003180031087E01CF00400132087E01D200400141
:1003280033087E01D000400134087E01D100F82254
:100338008031F52A0A30612AA4003E08A600073059
:10034800A701A635A70D890BA5290F30A717A5006A
:100358003A08A000A1012406A2002108A30022084F
:10036800BB00BA013B08031908003B08A1003A0882
:10037800A000250AC129A136A00C890BBF29200895
:1003880021040319CB292608BA062708BB06270823
:10039800A1002608A000A136A00C2008A60021086C
:1003A800A700A503B629BA01BB0108003A0808004E
:1003B8004B228031003A031D080050019E011E1394
:1003C8006F231E161E1555309F00AA309F009E14DD
:1003D8001E11080040013C0E890C890C0339013AB2
:1003E800031DF92994019A0108003C0E890C890C17
:1003F8000339023A031D042A9401FF309A000800C9
:100408003C0E890C890C0339033A031D0800FF30A0
:1004180094007E01CF0108004B228031003A031D71
:10042800080050019E011E136F2380311E129E1674
:100438001E154001A5012535A03E86008701403FD5
:1004480050019C00413F9D001F3040012506031DBF
:100458002F2A50019E12553050019F00AA309F004C
:100468009E141F304001250603193C2A50019A0AA0
:1004780040012030A50A2502031C1F2A50019E12A4
:1004880055309F00AA309F009E141E111D2B79081D
:10049800080003307806031D5C2A4B228031003A9D
:1004A80003190134083061228031662218120034A1
:1004B800073061228031662200344001A100FA0031
:1004C80021081A2BF80108004E018D100800400180
:1004D800A0007E01D40008004001A0007E01D300E6
:1004E80008004B228031003A031D080050019E018C
:1004F8001E1364238031A00150011E1440012035D1
:10050800A03E8600870150011C08C03F1D08C13F5E
:100518006A238031A00A200203180800802AF022EA
:1005280080319A01FF3094007E01CF00D100D001C4
:10053800D20100307022803100306B2A8B018B177A
:100548000B1708004E0116160800A000BA01BB01DF
:10055800BE000800D522803143019001D8228031A5
:1005680043018F018F170F131008F03906389000D8
:1005780091019113911211169115111092011217F0
:100588009216921192141214D2228031FE308E00EB
:10059800682280311823430190160800C0308D006E
:1005A80008004E01971008004001131713167E012A
:1005B8004313431208309C0007309E00013042016B
:1005C8008C008D000C307D01C6000E30C50008007F
:1005D800BC017522803147297E01D301D401D501A0
:1005E800F52A4001BD010800762BBC01F80108007E
:1005F800FA01F9014001BD010800FD01FC01FB0100
:10060800080043010F0E013908007808031D013462
:1006180000347E01540808007E01530808008B133B
:100628000B130800FB01080097140800A000F9004C
:1006380008009E011E1364238031A40150011E147A
:1006480040012435A03E86008701403FA200413F7B
:10065800A30050011D0840012306031D372B50013C
:100668001C084001220603193B2B0B30612A50015C
:100678006A238031A40A240203180800222B3608B2
:10068800A800A030A8352807A90037352907AA00EF
:100698000800840085010008810037082D3E860087
:1006A80001080800860087012808C03F2908C13FC3
:1006B8003508080086002808C03F2908C13F0800FF
:1006C8000F309B0080309A00400108009A0A0319F5
:1006D8009B0A400120340F309B0080309A000800AC
:1006E8007E01762B5509D5054E010C1208004301F1
:1006F80091120F1E8A2BFC01FD0140011816B03023
:100708007B06031D0800C824FB0108007D0C033983
:10071800013A0319921B952B0F19952BF930FD05FA
:1007280008008F190F18A12B921BA12B7D0C0339E0
:10073800031DA12B7D14FC0108000F1CF02B7D0864
:10074800F9390238FD000C08F7007C08031DC02B9E
:1007580000300424833143010F1DE32B07307B0253
:10076800031CE32B08307B02031CBE2B0C307B02DE
:10077800031CE32B0330E12B0F19ED2B7C0BD02B43
:100788007708FB00A1307B060319CE2BA2307B062D
:10079800031DE32B0630E12B7708F3007B08622466
:1007A800833102248331003A031DDC2BFB0AE32B3F
:1007B80002307C06031DE32B04305D2483310224C0
:1007C8008331003A0319EB2B43019116ED2B4301BA
:1007D80091121016FC0A08007D180F1D0800111B45
:1007E80008007B080724833143018C000224003A67
:1007F8000319FB0A43011016FC0A080079080800CF
:10080800F000F9000800F400242CBE2CB92C40019B
:100818000E08080040011408080040011A080800E2
:10082800C5240800C22408007E014F0808007E0184
:10083800520808007E01500808007E01510808008F
:100848007408F200F3017308003A03192C2C362CB3
:10085800720884000C3004020318362C84310435E5
:10086800DE3E820001305D240034F200780B482C13
:10087800A5307206031D432C0230F8000800FF3033
:10088800F80009305D24080002307806031D582C52
:10089800F0307206031D532C0330F8000800FF30B7
:1008A800F80009305D240800FF30F80009305D24A5
:1008B8000800F100FA00710804240800F6008A2CE8
:1008C8007308400194000800730840019A0008006A
:1008D8007308DA2408007308D624080073087E0118
:1008E800CF00080073087E01D200080073087E015B
:1008F800D000080073087E01D10008007308D02CCE
:1009080073083924080002305D2408007608F400D2
:10091800F5017508003A0319922C872C7408033ADC
:100928000319642C073A0319682C013A03196C2C33
:10093800033A03196F2C0E3A0319722C013A031962
:10094800762C033A03197A2C013A03197E2CAB3A18
:100958000319822C013A0319842C033A0319842CB5
:10096800123A0319862C872C080040013D08F00034
:10097800BD0108007A08F000FA0108007E01540859
:1009880008007E015308080043019012CD249016F8
:100998000800C0308D000800F0004001BC000130A4
:1009A800F8000800F0007E01D4000800F0007E0185
:1009B800D30008008431092C84310A2C84310B2C93
:1009C80084310E2C8431112C8431142C8431162C52
:1009D8008431362C8431182C84311B2C84311E2C04
:1009E8008431212C640080010131890BF72C0034FB
:0E09F8007E0155084001BD0408008D10080066
:101F00000034013402340334043405340634073415
:101F1000083409340A340B340C340D340E340F34C5
:101F20001034113412341334143415341634173475
:101F3000183419341A341B341C341D341E341F3425
:020000040001F9
:04000E00CD3FEF3FB4
:04001400EF3FFF3F7C
:00000001FF
