:020000040000FA
:020000001428C2
:100008007E1480314E010C1E0D280624D523400194
:1000180018124E018D1C12286A24AC207E1009008B
:10002800A02F40013C0C890C03390907090709076F
:10003800B6001408AD001A08AE0039244001AF001C
:100048003C244001B0007E014F084001B1007E0110
:1000580052084001B2007E0150084001B3007E0101
:1000680051084001B4004B24B70108303702031887
:1000780052283708A800A030A8352807A900363527
:100088002907AA00860000308701C03FC13F370812
:100098002D3E860001082122B70A39286624B500BA
:1000A800C039A800A901A835A90DA835A90D36356C
:1000B800A03E9E203039A800F030A901A80EA90E54
:1000C800A90528080F39A904F030A8053635A23E3D
:1000D800A62035080C39A8000630A901A835A90DB5
:1000E800890B72283635A43E9E200339A800A90141
:1000F800A900A8013635A63EA620B7010830370268
:100108000318080037082D3E860087010108A8005B
:10011800A9013708AA00A030AA352A07AB0036354E
:100128002B07AC0086002808810441312908810486
:10013800B70A8228860087012808C03F2908C13FDE
:100148003508080086002808C03F2908C13F080074
:10015800430191120F1EBB28FC01FD014001181636
:10016800B0307B06031D08000B24FB0108007D0C42
:100178000339013A0319921BC6280F19C628F9300A
:10018800FD0508008F190F18D228921BD2287D0C64
:100198000339031DD2287D14FC0108000F1C1C29FB
:1001A8007D08F9390238FD000C08F7007C08031DAA
:1001B800F0280030572443010F1D102907307B0217
:1001C800031C102908307B02031CEE280C307B022C
:1001D800031C102903300F290F1919297C0B00293A
:1001E8007708FB00A1307B060319FE28A2307B06A6
:1001F800031D102906300F297708F3007B088D218D
:100208006C24003A031D0A29FB0A102902307C06D7
:10021800031D1029043010246C24003A03191729EF
:10022800430191161929430191121016FC0A08007E
:100238007D180F1D0800111B08007B085822430178
:100248008C006C24003A0319FB0A43011016FC0ABF
:1002580008004001B5013C080339090709070907E7
:10026800B600B7014B240430370203185529B535B9
:10027800B5357A2186008701403FAB00413FAC008D
:10028800B50437082D3E86007A2184212122B70A39
:10029800372937082D3E860087017A2184212122BB
:1002A800B70A08303702031C4D2966243506031D9A
:1002B80078292D0894002E089A002F08F72340016A
:1002C8003008FC23400131087E01CF00400132088C
:1002D8007E01D200400133087E01D000400134087D
:1002E8007E01D100FF27482C0A30F22B3608A800DF
:1002F800A030A8352807A90037352907AA00080023
:10030800840085010008810037082D3E8600010819
:100318000800F600B5297308400194000800730826
:1003280040019A00080073082A24080073082E2444
:10033800080073087E01CF00080073087E01D20010
:10034800080073087E01D000080073087E01D10000
:1003580008007308E22B7308B92208000230102441
:1003680008007608F400F5017508003A0319BD295C
:10037800B2297408033A03198F29073A03199329F4
:10038800013A03199729033A03199A290E3A0319CE
:100398009D29013A0319A129033A0319A529013A0C
:1003A8000319A929AB3A0319AD29013A0319AF2951
:1003B800033A0319AF29123A0319B129B2290800DF
:1003C80036244001181660249A23003A031DF129A7
:1003D80051241A244001181208000030F223622424
:1003E8003C0E03390319082A3B23082ABC23EC29AD
:1003F8001520AB23B427EC29DD222D21EC2915206B
:10040800DD22AB23B427012A40013C0E0339B80092
:10041800B9013908003A0319122AEC293808003AB8
:100428000319FA29013A0319FC29033A0319002A86
:10043800013A0319032AEC290800A4003E08A60083
:100448000730A701A635A70D890B262A0F30A71755
:10045800A5003A08A000A1012406A2002108A300D3
:100468002208BB00BA013B08031908003B08A10099
:100478003A08A000250A422AA136A00C890B402A76
:100488002008210403194C2A2608BA062708BB06A7
:100498002708A1002608A000A136A00C2008A60065
:1004A8002108A700A503372AF400752A322C152C39
:1004B80040010E08080040011408080040011A080D
:1004C80008005A2408005D2408007E014F0808002F
:1004D8007E01520808007E01500808007E0151087C
:1004E80008007408F200F3017308003A03197D2A22
:1004F800872A720884000C3004020318872A833183
:10050800C930040782000130102400349E011E13F4
:10051800B322A40150011E1440012435A03E8600D8
:100528008701403FA200413FA30050011D08400140
:100538002306031DA32A50011C08400122060319A3
:10054800A72A0B30F22B5001AE22A40A240203186A
:1005580008008E2A9A0A03199B0A400120340730A2
:100568009B0080309A0040010800F200780BC82AEE
:10057800A5307206031DC32A0230F8000800FF30B8
:10058800F80009301024080002307806031DD82A24
:10059800F0307206031DD32A0330F8000800FF303C
:1005A800F800093010240800FF30F8000930102442
:1005B800080040013C0E890C890C0339013A031DDF
:1005C800E82A94019A0108003C0E890C890C033929
:1005D800023A031DF32A9401FF309A0008003C0EEA
:1005E800890C890C0339033A031D0800FF30940075
:1005F8007E01CF0108004E24430190011F234301CF
:100608008F018F170F131008F039063890009101E9
:100618009113911211169115111092011217921639
:100628009211921412148723FE308E0051246824EC
:100638004301901608004001131713167E01431357
:10064800431208309C0007309E00013042018C00A4
:100658008D000C307D01C6000E30C500400112141B
:10066800921412157E013810B8103811080064244D
:10067800003A031D080050019E011E13B322A00179
:1006880050011E1440012035A03E8600870150010C
:100698001C08C03F1D08C13FAE22A00A2002031853
:1006A8000800442B043051019300E823073001244B
:1006B8003F24F227FF22262454241A246300000032
:1006C8002224003A0319642B1E24003A03196D2BC7
:1006D800E42163000000642B40010C0C890C0139F3
:1006E800F000F035F035F0350C0C0139F100F1353A
:1006F800F1350C080139090771047004832BC038DF
:1007080043018D00080040010C0C890C0139A00040
:10071800A035A035A0350C0C0139A100A135A135B3
:100728000C080139090721042004832B03307806BB
:10073800031DA72B6424003A031901340830F2235F
:100748006224181200340730F2236224003464242F
:10075800003A031D080050019E011E13ED271E16C6
:100768001E1555309F00AA309F009E141E110800C8
:10077800ED239A01FF3094007E01CF00D100D00113
:10078800D2010030F7230030FC2B5A2A5B2A5C2A5E
:100798005F2A622A652A672A872A692A6C2A6F2AA9
:1007A800722A7E01D72B5509D5054E010C12080077
:1007B800640080010131890BDD2B0034F000400119
:1007C800BC000130F8000800FA01F9014001BD0140
:1007D80008007E01D301D401D501482C4001A100B5
:1007E800FA002108452C4001A0007E01D300080032
:1007F8004001A0007E01D4000800A000BA01BB019E
:10080800BE0008007E0155084001BD0408004301F0
:100818009012702390160800F100FA00710857240E
:10082800080040013D08F000BD0108008B018B174E
:100838000B1708007808031D0134003443010F0E1C
:1008480001390800FD01FC01FB010800F0007E01F0
:10085800D3000800F0007E01D40008007A08F000F8
:10086800FA0108008B130B1308007E0153080800D7
:100878007E0154080800BC01F8010800BC013B23B4
:100888002D29A000F90008004001BD010800BA01A7
:10089800BB0108004E01971008004E018D1008009A
:1008A8004E0116160800F000F90008007E015308F2
:1008B80008007E0154080800FB010800F801080040
:1008C800790808003A080800971408008D100800F5
:0408D8007908080093
:100F00000034013402340334043405340634073425
:100F1000083409340A340B340C340D340E340F34D5
:100F20001034113412341334143415341634173485
:100F3000183419341A341B341C341D341E341F3435
:100F4000F801F901FA01FB01FC01FD014001A030AB
:100F5000BA01BB01BC01BD018400003085004030F6
:100F6000DC237E104001562B6424003A031D080048
:100F700050019E011E13ED271E129E161E154001E4
:100F8000A5012535A03E86008701403F50019C0009
:100F9000413F9D001F3040012506031DD12F500108
:100FA0009E12553050019F00AA309F009E141F30A2
:100FB000400125060319DE2F50019A0A4001203016
:100FC000A50A2502031CC12F50019E1255309F0017
:100FD000AA309F009E141E118A2A07309B00803081
:100FE0009A00080042246424003A0319F82FBC2315
:100FF0007E01CE013A164001121218160800D72BB6
:020000040001F9
:04000E00CD3FEF3FB4
:04001400EF3FFF3F7C
:00000001FF
