:020000001A28BC
:100008007E1480314E010C1E0D283724FA2340013E
:1000180018124E018D1C12288824B2204E010D1F83
:1000280018280423072497247E100900A02F4001D4
:100038003C0C890C0339090709070907B60014089D
:10004800AD001A08AE006A244001AF006D244001DB
:10005800B0007E014F084001B1007E015208400106
:10006800B2007E0150084001B3007E0151084001F2
:10007800B4007C24B7010830370203185828370821
:10008800A800A030A8352807A90036352907AA00F6
:10009800860000308701C03FC13F37082D3E8600EB
:1000A80001082622B70A3F28A024B500C039A800B5
:1000B800A901A835A90DA835A90D3635A03EA4205B
:1000C8003039A800F030A901A80EA90EA905280802
:1000D8000F39A904F030A8053635A23EAC20350802
:1000E8000C39A8000630A901A835A90D890B782874
:1000F8003635A43EA4200339A800A901A900A80107
:100108003635A63EAC20B701083037020318080080
:1001180037082D3E860087010108A800A901370885
:10012800AA00A030AA352A07AB0036352B07AC0049
:10013800860028088104413129088104B70A8828E3
:10014800860087012808C03F2908C13F35080800F4
:1001580086002808C03F2908C13F080043019112C2
:100168000F1EC1288B24072440011816B0307C06C6
:10017800031D08003C24FC0108007A08031D921B9B
:10018800C9280F19C928FA0108008F190F18D6288D
:10019800921BD6287A08031DD6285F240130FB005D
:1001A800FD0108000F1C1F290130FA000C08F70098
:1001B8007D08031DF22800308E2443010F1D1329EA
:1001C80007307C02031C132908307C02031CF0282A
:1001D8000C307C02031C1329033012290F191C2927
:1001E80063247D0B03297708FC00A1307C060319E2
:1001F8000129A2307C06031D13290630122977082D
:10020800F3007C089221AA24003A031D0D29FC0A58
:10021800132902307D06031D132904301324AA2450
:10022800003A03191A29430191161C294301911216
:100238001016FD0A08007B08031D0F1D0800111B7E
:10024800080063247C085D2243018C00AA24003A3C
:100258000319FC0A43011016FD0A08004001B50104
:100268003C080339090709070907B600B7017C24C8
:100278000430370203185A29B535B5357F21860071
:100288008701403FAB00413FAC00B50437082D3E25
:1002980086007F2189212622B70A3C2937082D3E6E
:1002A800860087017F2189212622B70A0830370274
:1002B800031C5229A0243506031D7D292D0894000E
:1002C8002E089A002F082824400130082D244001C8
:1002D80031087E01CF00400132087E01D200400182
:1002E80033087E01D000400134087E01D100AD24DE
:1002F800792C0A30232C3608A800A030A835280706
:10030800A90037352907AA000800840085010008DC
:10031800810037082D3E860001080800F600BA293A
:100328007308400194000800730840019A0008000F
:1003380073085724080073085B24080073087E01BB
:10034800CF00080073087E01D200080073087E0100
:10035800D000080073087E01D100080073080D2C36
:100368007308BE2208000230132408007608F4003F
:10037800F5017508003A0319C229B7297408033A28
:1003880003199429073A03199829013A03199C2952
:10039800033A03199F290E3A0319A229013A0319AE
:1003A800A629033A0319AA29013A0319AE29AB3A37
:1003B8000319B229013A0319B429033A0319B429D4
:1003C800123A0319B629B7290800672440011816FC
:1003D8009A24A023003A031DF62982244B244001C5
:1003E80018120800003023249C243C0E03390319FA
:1003F8000D2A5B230D2AE123F1291B20B123B52700
:10040800F129E2223221F1291B20E222B123B5276A
:10041800062A40013C0E0339B800B9013908003AF0
:100428000319172AF1293808003A0319FF29013A54
:100438000319012A033A0319052A013A0319082A5C
:10044800F1290800A4003F08A6000730A701A63537
:10045800A70D890B2B2A0F30A717A5003A08A00073
:10046800A1012406A2002108A3002208BB00BA01AA
:100478003B08031908003B08A1003A08A000250A18
:10048800472AA136A00C890B452A20082104031904
:10049800512A2608BA062708BB062708A1002608FD
:1004A800A000A136A00C2008A6002108A700A503DB
:1004B8003C2AF4007A2A412C462C40010E080800F8
:1004C80040011408080040011A0808009124080097
:1004D800942408007E014F0808007E015208080095
:1004E8007E01500808007E01510808007408F200D7
:1004F800F3017308003A0319822A8C2A72088400CF
:100508000C30040203188C2A8331EE300407820071
:100518000130132400349E011E13B822A401500197
:100528001E1440012435A03E86008701403FA200EA
:10053800413FA30050011D0840012306031DA82ABE
:1005480050011C08400122060319AC2A0B30232C49
:100558005001B322A40A240203180800932A9A0A15
:1005680003199B0A4001203407309B0080309A0011
:1005780040010800F200780BCD2AA5307206031D51
:10058800C82A0230F8000800FF30F80009301324A8
:10059800080002307806031DDD2AF0307206031DBC
:1005A800D82A0330F8000800FF30F8000930132477
:1005B8000800FF30F80009301324080040013C0E01
:1005C800890C890C0339013A031DED2A94019A011B
:1005D80008003C0E890C890C0339023A031DF82ADD
:1005E8009401FF309A0008003C0E890C890C0339ED
:1005F800033A031D0800FF3094007E01CF01080074
:10060800A824430190010F23FE308E008824A624DD
:100618004301901608008F018F170F131008F03947
:10062800063890009101911391121116911511102D
:1006380092011217921692119214121408000430A3
:10064800510193001924073032247024F327D3234F
:10065800C2238524AC24A4244B2463000000532423
:10066800003A0319332B4F24003A03193C2BE92194
:1006780063000000332B4001131713167E01431348
:10068800431208309C0007309E00013042018C0064
:100698008D000C307D01C6000E30C50040011214DB
:1006A800921412157E013810B810381108009E24D3
:1006B800003A031D080050019E011E13B822A00134
:1006C80050011E1440012035A03E860087015001CC
:1006D8001C08C03F1D08C13FB322A00A200203180E
:1006E8000800642B40010C0C890C0139F000F0352E
:1006F800F035F0350C0C0139F100F135F1350C0805
:100708000139090771047004892BC03843018D0031
:10071800080040010C0C890C0139A000A035A03557
:10072800A0350C0C0139A100A135A1350C080139FF
:10073800090721042004892B03307806031DAD2BFB
:100748009E24003A03190134083023249C241812EB
:100758000034073023249C2400349E24003A031DCF
:10076800080050019E011E13EE271E161E15553057
:100778009F00AA309F009E141E11080045018E019B
:100788000E088F3940388E008F010F08E03908387D
:100798008F008F170430900034308D0008007F24BC
:1007A800430190013F2343010F238D23FE308E0028
:1007B8008224A2244301901608001E249A01FF30C7
:1007C80094007E01CF00D100D001D201003028244E
:1007D80000302D2C5F2A602A612A642A672A6A2A37
:1007E8006C2A8C2A6E2A712A742A772A7E01FC2B9D
:1007F8005509D5054E010C1208006400800101312D
:10080800890B022C0034082CFB01FA01FD01FC01C4
:100818000800F0004001BC000130F8000800F100B9
:100828004001BE0071088E2408004001BE01F90194
:10083800BD0108007E01D301D401D501792C400106
:10084800A100BE002108762C4001A0007E01D30043
:1008580008004001A0007E01D4000800A000BA01F1
:10086800BB01BF0008007E0155084001BD04080017
:100878004301901276239016080040013E08F000CC
:10088800BE01080040013D08F000BD0108008B01D1
:100898008B170B1708007808031D01340034430137
:1008A8000F0E01390800F0007E01D3000800F000A7
:1008B8007E01D400080045018C018E17080097249A
:1008C80045018C0108008B130B1308007E015308A7
:1008D80008007E0154080800BC01F8010800BC01AA
:1008E8005B233229A000F90008004001BD0108007F
:1008F800BA01BB0108004E01971008004E018D1087
:1009080008004E01171708004E018D100800450118
:100918008E130800F000F90008007E015308080053
:100928007E01540808004E010D130800FC01080060
:10093800F8010800790808003A0808009714080028
:100948001616080097140800971008007908080080
:04095800082CFC2B40
:100F00000034013402340334043405340634073425
:100F1000083409340A340B340C340D340E340F34D5
:100F20001034113412341334143415341634173485
:100F3000183419341A341B341C341D341E341F3435
:100F4000F801F901FA01FB01FC01FD014001A030AB
:100F5000BA01BB01BC01BD01BE01840000308500A7
:100F6000403001247E104001232B9E24003A031DB3
:100F7000080050019E011E13EE271E129E161E151C
:100F80004001A5012535A03E86008701403F500164
:100F90009C00413F9D001F3040012506031DD22FBC
:100FA00050019E12553050019F00AA309F009E14A0
:100FB0001F30400125060319DF2F50019A0A400116
:100FC0002030A50A2502031CC22F50019E12553065
:100FD0009F00AA309F009E141E118F2A07309B008D
:100FE00080309A00080073249E24003A0319F92FD8
:100FF000E1237E01CE013A164001121218160800B4
:020000040001F9
:08000000FF3FFF3FFF3FFF3F00
:0A000E00CD3FEF3FFF3FFF3FFF3FF4
:00000001FF
