:020000040000FA
:020000002028B6
:100008007E1480314E010C1E0A280B2813288631D5
:100018009226803186316B268031400118124E01BC
:100028008D1C172818281E288631F126803180312A
:10003800212080317E100900A02F430191120F1E4C
:100048002628272837284001C201C3011816B030D6
:100058007D06031D302831281F29863173268031FB
:10006800FD011F291F294001430C0339013A031DD3
:100078003E283F284C284301921B432844284C28FB
:100088000F19472848284C28F9304001C3051F2973
:1000980043018F1D5028512864280F1854285528CB
:1000A8006428921B5828592864284001430C0339B6
:1000B800003A031D6028612864284314C2011F29DF
:1000C80043010F1C68286928F82840014308F939BA
:1000D8000238C30043010C08FA007A08FB0040010B
:1000E8004208031D78287928A528003086319926EA
:1000F800803143010F1D81288228982807307D020E
:10010800031C87288828982808307D02031C8D281E
:100118008E2894280C307D02031C93289428982854
:1001280003308631332680318631F4268031003A17
:10013800031D9F28A22843019116A4284301911268
:10014800F12843010F19A928AA28F12840014203E0
:10015800031DAF28B028C5287B08FA007A08FD00DF
:10016800A1307D060319B928BA28C028A2307D0617
:10017800031DBF28C028E528063086313326803184
:10018800E5287B08FA007A08F6007D0883312223E7
:1001980080318631F4268031003A031DD428D528D1
:1001A800DA280130FA007A08FD07E5280230400114
:1001B8004206031DE028E128E5280430863133266D
:1001C80080318631F4268031003A031DEC28EF286F
:1001D80043019116F1284301911210160130FA00DB
:1001E8007A084001C2071F294001431CFC28FD284A
:1001F800362843010F1D012902293628111B05291C
:10020800062936287D0883318523803143018C00F7
:100218008631F4268031003A031D13291429182940
:100228000130FA007A08FD07430110160130FA0080
:100238007A084001C207080040013E0C890C0339C6
:10024800A9000230A935FF3E031D26292935AA0039
:100258002A08B7001408A9002908AE001A08A9003E
:100268002908AF008631D62681314001A900290826
:10027800B0008631D92681314001A9002908B10092
:100288007E014F084001A9002908B2007E015208EA
:100298004001A9002908B3007E0150084001A900C7
:1002A8002908B4007E0151084001A9002908B500B9
:1002B8008631D22681314001B80181293808A90048
:1002C8000130A935890B6529A0302907AA003735DF
:1002D8002A07AB002B08860087010030C03FC13FCA
:1002E80038082E3E8600870101088331DD238131DD
:1002F80001304001A9002908B80708303802031C5A
:100308008629872962298631DF2681314001A900A3
:100318002908B6003608C039A900AA01A935AA0DCE
:10032800A935AA0D3735A03E860087012908C03FA8
:100338002A08C13F36083039A900AA01A90EAA0E19
:10034800F030AA0529080F39AA04F030A905373575
:10035800A23E860087012908C03F2A08C13F360807
:100368000C39A900AA010630A935AA0D890BB829AC
:100378003735A43E860087012908C03F2A08C13FB7
:1003880036080339A900AA012908AA00A9013735A6
:10039800A63E860087012908C03F2A08C13FB80148
:1003A800F42938082E3E860087010108A900AA0111
:1003B8003808AB000130AB35890BDF29A0302B079B
:1003C800AC0037352C07AD002D08860087012908B9
:1003D800810441312A0881040130A9002908B8079D
:1003E80008303802031CF929FA29D52908004001E8
:1003F800B7013E080339A9000230A935FF3E031DA5
:10040800012A2935AA002A08B800B9018631D2265E
:100418008131542A3708A9000130A935FF3E031D50
:10042800112A2935AA002A08B7003808A90001307E
:10043800A935890B1C2AA0302907AA0039352A07B3
:10044800AB002B0886008701403FAC00413FAD0060
:100458002D08AE002E08B7043808A9000130A935C8
:10046800890B332AA0302907AA0039352A07AB009F
:100478002B08860087010108AC0039082F3E86004A
:1004880087012C08810039082F3E86008701010862
:100498008331DD23813101304001A9002908B907E2
:1004A800043040013902031C5A2A5B2A0E2A802A8A
:1004B8003808A9000130A935890B5F2AA03029071F
:1004C800AA0039352A07AB002B08860087010108E6
:1004D800AC0039082F3E860087012C0881003908B6
:1004E8002F3E8600870101088331DD2381310130E9
:1004F8004001A9002908B90708303902031C852AD8
:10050800862A5C2A8631DF26813140013706031DA1
:100518008E2A8F2AB32A2F08940030089A003108AF
:100528008631A6268131400132088631AC268131D8
:10053800400133087E01CF00400134087E01D2001B
:10054800400135087E01D000400136087E01D10007
:1005580086313E2681318631E2268131B72A0A303A
:100568008731F227813108008731FD278231400128
:1005780018168631FD268231853170258231003A80
:10058800031DC72AC82AD12A8631EB268231863133
:10059800C626823140011812212B00308731F227FC
:1005A80082318631FF26823140013E0E0339003AFE
:1005B8000319DF2AE02A092B8431EF248231092B21
:1005C8008531FC258231C82A81312021823185314B
:1005D800B1258231843132248231C82A85314825B7
:1005E80082318131FB218231C82A81312021823137
:1005F8008531482582318531B125823184313224D3
:1006080082318131FB218231C82A40013E0E0339F3
:10061800BA00BB013B08003A0319132BC82A3A0851
:10062800003A0319E42A013A0319E82A033A03199C
:10063800F22A013A0319F92AC82A0800F900562BA8
:10064800760840019400842B760840019A00842B98
:1006580076088631BC268331842B76088631C126FC
:100668008331842B76087E01CF00842B76087E01A7
:10067800D200842B76087E01D000842B76087E0178
:10068800D100842B7608863128268331842B76087E
:100698008731B5278331842B842B0230863133266A
:1006A8008331842B7908F700F8017808003A031998
:1006B8005E2B512B7708033A0319242B073A0319A9
:1006C800282B013A03192C2B033A0319312B0E3A24
:1006D8000319362B013A03193A2B033A03193E2B17
:1006E800013A0319422BAB3A0319462B013A031975
:1006F8004B2B033A03194B2B123A0319502B512B4E
:100708000800F600AC2B86317B268331DC2B863142
:1007180083268331DC2B40010E08DC2B40011408B2
:10072800DC2B40011A08DC2B8631F7268331DC2BC1
:100738008631FA268331DC2B7E014F08DC2B7E01C3
:100748005208DC2B7E015008DC2B7E015108DC2B83
:100758007608F400F5017508003A0319B42BD72B75
:100768007408003A0319872B013A03198B2B033AB3
:1007780003198F2B013A0319922B073A0319952B6A
:10078800013A0319982B033A03199C2B0E3A0319C3
:10079800A02B013A0319A32B033A0319A62B013AFC
:1007A8000319A92BD72B013086313326833100302A
:1007B80008004001A5004408A000A1010730A035A9
:1007C800A10D890BE32B00302004A7008030210401
:1007D800A8000F30A0002008A600FF303C05A000AC
:1007E80000303D05A10020082506A2002108A3002D
:1007F8002208A300A2012208BC002308BD00242C63
:100808003D08A1003C08A000260A0C2CA136A00C2B
:10081800890B0A2C200821040319132C142C182CDA
:100828002708BC062808BD062808A1002708A0003C
:10083800A136A00C2008A7002108A8000130A602B4
:100848003D08A1003C08A0002108A000A101200843
:100858002104031D302C312C042C08008631DC26A1
:100868008431003A0319392C3A2C3B2C812C500145
:100878009E011E1307309B0080309A001E129E16A0
:100888001E154001A8012835A03E86008701403F7B
:1008980050019C00413F9D001F3040012806031D68
:1008A800562C572C592C50019E12553050019F0040
:1008B800AA309F009E141F30400128060319652C9A
:1008C800662C6B2C0130A700270850019A070130CD
:1008D8004001A7002708A80720302802031C752C10
:1008E800762C472C50019E1255309F00AA309F004D
:1008F8009E141E11843182248431080050019E0107
:100908001E1307309B0080309A004001A601500159
:100918001E1440012635A03E86008701403FA400F2
:10092800413FA50050011D0840012506031DA02CCC
:1009380050011C08400124060319A32CA42CA92C3F
:100948000B308731F2278431B92C013050019A07D6
:1009580000309B3D01304001A4002408A607203048
:100968002602031CB82CB92C8B2C0800033051012B
:1009780093008631B7268431073086315A26843170
:100988008631CE26843186311326843185311D2562
:1009980084318631B22684318631EE26843186311F
:1009A800C6268431630000008631CA268431003AA5
:1009B8000319DF2CE02CD82C863148268431003AE4
:1009C8000319E72CE82CEB2C8231B8228431630020
:1009D8000000D82C20288631DC268431003A0319FF
:1009E800F62CF72CF82C1C2D50019E011E130730F5
:1009F8009B0080309A004001A10150011E14400163
:100A08002135A03E8600870150011C08C03F1D0803
:100A1800C13F01309A0700309B3D01304001A000E2
:100A28002008A10720302102031C1B2D1C2D012D9D
:100A380008008631E82685314301900185319425E7
:100A4800853143018F018F170F131008F0390638CD
:100A580090009101911391121116911511109201A4
:100A6800121792169211921412148531CA258531E3
:100A7800FE3043018E008631EB2685318631E5262E
:100A8800853143019016080040013E0E890C890CFF
:100A98000339013A031D512D522D552D94019A0108
:100AA8006F2D3E0E890C890C0339023A031D5D2D0A
:100AB8005E2D622D9401FF309A006F2D3E0E890C39
:100AC800890C0339033A031D6A2D6B2D6F2DFF30F6
:100AD80094007E01CF01080003307C06031D752DAC
:100AE800762D8B2D8631DC268531003A03197D2D34
:100AF8007E2D892D08308731F22785318631FF26F2
:100B08008531400118120030932D0130932D0730A4
:100B18008731F22785318631FF268531003008007C
:100B28004001131713167E014313431208309C002B
:100B380007309E00013042018C0001308D000C30DE
:100B48007D01C6000E30C500400112149214121522
:100B58007E013810B810381108008631DC2685313E
:100B6800003A0319B82DB92DBA2DC92D50019E018F
:100B78001E1307309B0080309A001E161E15553034
:100B88009F00AA309F009E141E11080040010C0C03
:100B9800890C0139A0000330A035890BD02D0C0C2D
:100BA8000139A1000230A135890BD72D0C08013974
:100BB800090721042004C03843018D0008004001C2
:100BC8000C0C890C0139F0000330F035890BE92D44
:100BD8000C0C0139F1000230F135890BF02D0C08AD
:100BE8000139090771047004C03843018D000800F9
:100BF80086316326853140019A01FF309400FF3029
:100C08007E01CF00FF30D100D001D2010030863103
:100C1800A626853100308631AC268531080086311C
:100C2800512686318631DC268631003A03191D2E7D
:100C38001E2E212E8531FC2586317E01CE013A16E5
:100C48004001121218160800F1007108F00070082F
:100C58004001BE000130F0007008FC000800F300FD
:100C68007308F20072084001C100730886319926A2
:100C7800863108007E0155094001A00020087E0148
:100C8800D5054E010C1208007C0803194C2E4D2E78
:100C98004F2E0130502E003008004001BE01843133
:100CA800EF2486318131FB21863108004001A10003
:100CB800BC01BD012108A0002008C40008007E0175
:100CC800D301D401D5018631E226863108007E01A0
:100CD8005509F0007008D5054E010C1208004301B3
:100CE80090128531E32586314301901608004001B2
:100CF8004108F0007008F100C101710808004001C6
:100D08003F08F0007008F100BF01710808004001B9
:100D1800A1002108A0002008C00008007E01550895
:100D2800F00070084001BF040800F1007108F000ED
:100D380070084001C0000800640080010131890B7F
:100D4800A12E00344001A00020087E01D300080035
:100D58004001A00020087E01D40008004001C30122
:100D6800C201FD0108004001C101C001BF01080026
:100D7800F00070087E01D3000800F00070087E01C2
:100D8800D40008008B018B170B17080043010F0EC6
:100D9800013908004001BE01FC0108004001BC0106
:100DA800BD0108007E01530808007E0154080800B0
:100DB80040014008080040013C0808004001BF010C
:100DC80008004E01971408004E01971008004E01C4
:100DD8008D1008004E01161608004E018D100800EF
:100DE8004001400808007E01530808007E015408AD
:0A0DF8000800FD010800FC010800DE
:100F00000034013402340334043405340634073425
:100F1000083409340A340B340C340D340E340F34D5
:100F20001034113412341334143415341634173485
:100F3000183419341A341B341C341D341E341F3435
:100F4000FC01FD013C308400003085000830863112
:100F5000A0268731A03084000030850040308631E3
:100F6000A02687317E104001BA2CF5007C03031DBA
:100F7000BA2FBB2FCF2FA5307506031DC02FC12F51
:100F8000C62F0230F4007408FC00F12FFF30F4008B
:100F90007408FC000930863133268731F12F023086
:100FA0007C06031DD42FD52FE92FF0307506031DC5
:100FB000DA2FDB2FE02F0330F4007408FC00F12F50
:100FC000FF30F4007408FC00093086313326873185
:100FD000F12FFF30F4007408FC000930863133260D
:100FE000873108004001A3002308A2002208C100A5
:100FF000230886318B26873108008B130B130800DA
:020000040001F9
:04000E00CD3FEF3FB4
:04001400EF3FFF3F7C
:00000001FF
