:020000040000FA
:020000001428C2
:100008007E1480314E010C1E0D280425E524400184
:1000180018124E018D1C12288325DE207E1009003F
:10002800A02F40013E0C890C0339A9000230A935E4
:10003800FF3E031D1B282935AA002A08B70014080B
:10004800A9002908AE001A08A9002908AF005725F9
:100058004001A9002908B0005A254001A900290833
:10006800B1007E014F084001A9002908B2007E01B5
:1000780052084001A9002908B3007E015008400138
:10008800A9002908B4007E0151084001A9002908E7
:10009800B5006625B80108303802031870283808FA
:1000A800A9000130A935890B5628A0302907AA00D4
:1000B80037352A07AB002B08860087010030C03F80
:1000C800C13F38082E3E8600870101087A22013098
:1000D800A9002908B8074F287F25A9002908B600D4
:1000E8003608C039A900AA01A935AA0DA935AA0D53
:1000F8003735A03E860087012908C03F2A08C13F3E
:1001080036083039A900AA01A90EAA0EF030AA05AE
:1001180029080F39AA04F030A9053735A23E860010
:1001280087012908C03F2A08C13F36080C39A900B1
:10013800AA010630A935AA0D890B9E283735A43E99
:10014800860087012908C03F2A08C13F36080339BD
:10015800A900AA012908AA00A9013735A63E8600E8
:1001680087012908C03F2A08C13FB8010830380272
:100178000318080038082E3E860087010108A900E8
:10018800AA013808AB000130AB35890BC828A0306C
:100198002B07AC0037352C07AD002D0886008701EA
:1001A8002908810441312A0881040130A90029085D
:1001B800B807BA28430191120F1EED284001C20169
:1001C800C3011816B0307D06031D08004325FD0144
:1001D80008004001430C0339013A031DFB28430181
:1001E800921F0F19FB28F9304001C305080043018D
:1001F8008F190F180A29921B0A294001430C033949
:10020800003A031D0A294314C201080043010F1CC8
:10021800682940014308F9390238C30043010C0832
:10022800FA007A08FB0040014208031D2E2900301D
:10023800292543010F1D582907307D02031C582921
:1002480008307D02031C2C290C307D02031C582920
:100258000330572943010F19612940014203031D47
:1002680043297B08FA007A08FD00A1307D060319AE
:100278004129A2307D06031D5829063057297B08DD
:10028800FA007A08F6007D0824227225003A031D38
:1002980052290130FA007A08FD075829023042062F
:1002A800031D58290430CC247225003A03195F290C
:1002B8004301911661294301911210160130FA0089
:1002C8007A084001C20708004001431C08004301A6
:1002D8000F1D0800111B08007D08B12743018C0081
:1002E8007225003A031D7C290130FA007A08FD07BF
:1002F800430110160130FA007A084001C2070800CD
:100308004001B7013E080339A9000230A935FF3E74
:10031800031D8A292935AA002A08B800B9016625CB
:10032800043039020318FD293708A9000130A9351E
:10033800FF3E031D9B292935AA002A08B700380863
:10034800A9000130A935890BA629A0302907AA00E0
:1003580039352A07AB002B0886008701403FAC00DF
:10036800413FAD002D08AE002E08B7043808A9009B
:100378000130A935890BBD29A0302907AA003935D4
:100388002A07AB002B08860087010108AC00390852
:100398002F3E860087012C08810039082F3E8600F1
:1003A800870101087A220130A9002908B907942990
:1003B8003808A9000130A935890BDF29A0302907A1
:1003C800AA0039352A07AB002B08860087010108E7
:1003D800AC0039082F3E860087012C0881003908B7
:1003E8002F3E8600870101087A220130A9002908DA
:1003F800B90708303902031CDC297F253706031D9D
:10040800212A2F08940030089A0031081D25400140
:1004180032082325400133087E01CF00400134080B
:100428007E01D200400135087E01D0004001360827
:100438007E01D100C324632508000A30D5240800B2
:10044800F9004B2A76089400080076089A000800FC
:1004580076083925080076083E25080076087E01CA
:10046800CF00080076087E01D200080076087E01D9
:10047800D000080076087E01D10008007608B9246B
:1004880008007608722308000230CC240800790896
:10049800F700F8017808003A0319532A482A770820
:1004A800033A0319262A073A0319292A013A031994
:1004B8002C2A033A03192F2A0E3A0319322A013A31
:1004C8000319362A033A03193A2A013A03193E2A2C
:1004D800AB3A0319422A013A0319452A033A031988
:1004E800452A123A0319472A482A0800A500440851
:1004F800A000A1010730A035A10D890B7F2A00308B
:100508002004A70080302104A8000F30A000200894
:10051800A600FF303C05A00000303D05A1002008E2
:100528002506A2002108A3002208A300A201220890
:10053800BC002308BD003D08031908003D08A100C0
:100548003C08A000260AAA2AA136A00C890BA82AD2
:10055800200821040319B42A2708BC062808BD0668
:100568002808A1002708A000A136A00C2008A70091
:100578002108A8000130A6029F2A6025003A031D21
:10058800080050019E011E1307309B0080309A001E
:100598001E129E161E154001A8012835A03E860091
:1005A8008701403F50019C00413F9D001F304001A2
:1005B8002806031DE12A50019E12553050019F0064
:1005C800AA309F009E141F30400128060319F12A03
:1005D8000130A700270850019A0701304001A70001
:1005E8002708A80720302802031CD12A50019E1290
:1005F80055309F00AA309F009E141E114123080009
:100608005425400118167B257324003A03191C2B26
:10061800212BA123292B9C241C2B15208824C122A3
:100628001C2BC8231B2B1520C8238824C1228421F6
:100638006C2548254001181208000030D5247D2576
:100648003E0E0339003A031D0D2B3E0E0339BA0046
:10065800BB013B08003A0319322B1C2B3A08003A1D
:1006680003190F2B013A0319112B033A0319152B00
:10067800013A0319172B1C2B08009E011E13073083
:100688009B0080309A004001A60150011E144001D1
:100698002635A03E86008701403FA400413FA500C3
:1006A80050011D0840012506031D5E2B50011C0842
:1006B800400124060319632B0B30D52408000130B0
:1006C80050019A0700309B3D01304001A4002408E6
:1006D800A6072030260203180800492BF5007C03E2
:1006E800031D862BA5307506031D7F2B0230F400F1
:1006F8007408FC000800FF30F4007408FC0009309E
:10070800CC24080002307C06031D9A2BF0307506B5
:10071800031D932B0330F4007408FC000800FF301D
:10072800F4007408FC000930CC240800FF30F40001
:100738007408FC000930CC2408006025003A031D29
:10074800080050019E011E1307309B0080309A005C
:100758004001A10150011E1440012135A03E860030
:10076800870150011C08C03F1D08C13F01309A078E
:1007780000309B3D01304001A0002008A107203037
:10078800210203180800AE2B40013E0E890C890C8B
:100798000339013A031DD32B94019A0108003E0E38
:1007A800890C890C0339023A031DDE2B9401FF30B2
:1007B8009A0008003E0E890C890C0339033A031D80
:1007C8000800FF3094007E01CF010800692543012D
:1007D80090010A2443018F018F170F131008F03975
:1007E800063890009101911391121116911511106C
:1007F8009201121792169211921412144124FE308B
:100808008E006C25812543019016080040011317BE
:1008180013167E014313431208309C0007309E00D4
:10082800013042018C0001308D000C307D01C60082
:100838000E30C50040011214921412157E013810B2
:10084800B8103811080003305101930034250730DF
:10085800DD245D25AC24EA232F256F254825630078
:1008680000004C25003A0319352CFD24003A0319E1
:100878003E2C042363000000352C40010C0C890C2D
:100888000139A0000330A035890B472C0C0C013925
:10089800A1000230A135890B4E2C0C08013909073B
:1008A80021042004C03843018D00080040010C0CCD
:1008B800890C0139F0000330F035890B602C0C0CE1
:1008C8000139F1000230F135890B672C0C08013928
:1008D800090771047004C03843018D000800033013
:1008E8007C06031D832C6025003A0319812C0830EF
:1008F800D5247D2518120030080001300800073083
:10090800D5247D25003008006025003A031D080025
:1009180050019E011E1307309B0080309A001E165E
:100928001E1555309F00AA309F009E141E11080006
:1009380011259A01FF309400FF307E01CF00FF306F
:10094800D100D001D20100301D2500302325080038
:1009580050256025003A0319B22C9C247E01CE0153
:100968003A164001121218160800F1007108F0003A
:100978007008BE000130F0007008FC00080055093E
:100988004001A00020087E01D5054E010C12080088
:10099800F3007308F20072084001C10073082925AA
:1009A8000800A3002308A2002208C1002308172575
:1009B8000800A100BC01BD012108A0002008C40056
:1009C80008007E015509F0007008D5054E010C128B
:1009D800080040014108F0007008F100C1017108E9
:1009E800080040013F08F0007008F100BF017108DD
:1009F80008007C080319022D0130080000300800A7
:100A08007E015508F00070084001BF04080064002A
:100A180080010131890B0C2D00347E01D301D401F2
:100A2800D50163250800A1002108A0002008C00006
:100A380008004001A00020087E01D3000800400102
:100A4800A00020087E01D4000800F1007108F00021
:100A58007008C00008004001C301C201FD01080080
:100A68004001C101C001BF010800F00070087E010B
:100A7800D3000800F00070087E01D400080043018C
:100A880090125A24901608008B018B170B17080038
:100A980043010F0E01390800BE01A123842108007B
:100AA8008B130B1308007E01530808007E015408BD
:100AB8000800BE01FC010800400140080800400190
:100AC800BF010800BC01BD0108004E0197100800D5
:100AD8004E018D1008004E0116160800400140080E
:100AE80008007E01530808007E0154080800FD0133
:100AF8000800FC0108003C080800971408008D1045
:020B08000800E3
:100F00000034013402340334043405340634073425
:100F1000083409340A340B340C340D340E340F34D5
:100F20001034113412341334143415341634173485
:100F3000183419341A341B341C341D341E341F3435
:100F4000FC01FD013C3084000030850008300B2599
:100F5000A03084000030850040300B257E10400119
:100F6000272CF600D02FED240800F52408004001BE
:100F70000E08080040011408080040011A08080083
:100F800075250800782508007E014F0808007E01BD
:100F9000520808007E01500808007E015108080030
:100FA0007608F400F5017508003A0319D82FFB2FD5
:100FB0007408003A0319B32F013A0319B52F033A05
:100FC0000319B72F013A0319BA2F073A0319BD2F96
:100FD000013A0319C02F033A0319C22F0E3A03191D
:100FE000C42F013A0319C72F033A0319CA2F013A34
:0E0FF0000319CD2FFB2F0130CC240030080058
:020000040001F9
:04000E00CD3FEF3FB4
:04001400EF3FFF3F7C
:00000001FF
