:0400000080312728FC
:100008007E1480314E010C1E112885317C258031EB
:100018008331C7238031400118124E018D1C1A28E4
:100028008331AC2380318331CE2380314E010D1FC3
:10003800252883319E2380318531172580318531EC
:1000480018257E10090080312928F801F901FA01E4
:10005800FB01FC01FD014001A030BA01BB01BC015C
:10006800BD01BE0184000030850040308531762511
:1000780080317E104001402804305101930017233D
:1000880080310730BC2280311423803169208031CF
:10009800C12280311C238031B92280312D23803147
:1000A800B7228031B3228031630000002F238031D2
:1000B800003A03195A2833238031003A0319662875
:1000C80078208031630000005A28072380315C22A1
:1000D8008031003A03197128A4227E01CE013A1614
:1000E80040011212181608003D23803140011816ED
:1000F800402380315E228031003A031D892879220D
:100108008031B32240011812080000307222803179
:10011800772280313C0E03390319AD2886228031BD
:10012800AD28A42280318328C6208031ED2180317A
:10013800212280318328FF21803158218031832872
:10014800C6208031FF218031ED218031212280318C
:10015800A12840013C0E0339B800B9013908003A1A
:100168000319B72883283808003A03199528013A53
:1001780003199828033A03199F28013A0319A42858
:100188008328080040013C0C890C0339090709073A
:100198000907B6001408AD001A08AE003A238031EA
:1001A8004001AF00372380314001B0007E014F0885
:1001B8004001B1007E0152084001B2007E015008A2
:1001C8004001B3007E0151084001B400E8218031AC
:1001D800B70108303702031807293708A800A030EC
:1001E800A8352807A90036352907AA008600003057
:1001F8008701C03FC13F37082D3E86000108B12165
:100208008031B70AED28EB218031B500C039A8004C
:10021800A901A835A90DA835A90D3635A03E80231A
:1002280080313039A800F030A901A80EA90EA9051F
:1002380028080F39A904F030A8053635A23E8E23C8
:10024800803135080C39A8000630A901A835A90D58
:10025800890B2A293635A43E802380310339A8002A
:10026800A901A900A8013635A63E8E238031B70121
:10027800083037020318080037082D3E860087012A
:100288000108A800A9013708AA00A030AA352A0742
:10029800AB0036352B07AC008600280881044131B5
:1002A80029088104B70A3C294001B5013C080339F3
:1002B800090709070907B600B701E82180310430AA
:1002C800370203188829B535B5356D238031860086
:1002D8008701403FAB00413FAC00B50437082D3ED5
:1002E80086006D23803177238031B1218031B70AB0
:1002F800632937082D3E860087016D2380317723D7
:100308008031B1218031B70A08303702031C7D29BA
:10031800EB2180313506031DAF292D0894002E08E6
:100328009A002F0881228031400130087C228031D8
:10033800400131087E01CF00400132087E01D20021
:10034800400133087E01D000400134087E01D1000D
:1003580013238031102B0A30722AA4003F08A6000C
:100368000730A701A635A70D890BB6290F30A717A7
:10037800A5003A08A000A1012406A2002108A300B4
:100388002208BB00BA013B08031908003B08A1007A
:100398003A08A000250AD229A136A00C890BD02939
:1003A800200821040319DC292608BA062708BB06F9
:1003B8002708A1002608A000A136A00C2008A60046
:1003C8002108A700A503C729BA01BB0108003A08FC
:1003D80008005C228031003A031D080050019E018C
:1003E8001E1399231E161E1555309F00AA309F0014
:1003F8009E141E11080040013C0E890C890C03391B
:10040800013A031D0A2A94019A0108003C0E890C3E
:10041800890C0339023A031D152A9401FF309A000A
:1004280008003C0E890C890C0339033A031D0800A7
:10043800FF3094007E01CF0108005C228031003A31
:10044800031D080050019E011E13992380311E12BE
:100458009E161E154001A5012535A03E8600870180
:10046800403F50019C00413F9D001F304001250640
:10047800031D402A50019E12553050019F00AA309A
:100488009F009E141F304001250603194D2A500174
:100498009A0A40012030A50A2502031C302A50017F
:1004A8009E1255309F00AA309F009E141E11472BA4
:1004B8007908080003307806031D6D2A5C22803114
:1004C800003A031901340830722280317722181259
:1004D8000034073072228031772200344001A100B5
:1004E800BE002108442BF80108004E018D100800B9
:1004F8004001A0007E01D40008004001A0007E0158
:10050800D30008005C228031003A031D0800500126
:100518009E011E1388238031A00150011E14400142
:100528002035A03E8600870150011C08C03F1D08E9
:10053800C13F94238031A00A200203180800912AA1
:100548000B2380319A01FF3094007E01CF00D10047
:10055800D001D20100308122803100307C2A8B0109
:100568008B170B170800161608004E0117170800FE
:10057800A000BA01BB01BF000800E8228031430196
:100588009001EB2280314301B3238031D4228031A2
:10059800FE308E00792280314223430190160800F4
:1005A80040010C0C890C0139A000A035A035A035FC
:1005B8000C0C0139A100A135A1350C080139090736
:1005C8002104200485315A2D4E019710080040015E
:1005D800131713167E014313431208309C0007308B
:1005E8009E00013042018C008D000C307D01C60058
:1005F8000E30C50040011214921412157E013810F5
:10060800B81038110800BC018622803158297E01B3
:10061800D301D401D501102B4001BD010800C92B1D
:10062800BC01F80108004001BE01F901BD01080044
:1006380045018E010E088F3940388E008F010F0852
:10064800E03908388F008F170430900034308D005F
:1006580008008531552D43010F0E0139080078082F
:10066800031D013400347E01540808007E0153083C
:1006780008008B130B130800FC01080097140800EE
:10068800A000F90008009E011E1388238031A401F0
:1006980050011E1440012435A03E86008701403FCA
:1006A800A200413FA30050011D0840012306031D7D
:1006B800612B50011C08400122060319652B0B30E1
:1006C800722A500194238031A40A240203180800D6
:1006D8004C2B3608A800A030A8352807A9003735C4
:1006E8002907AA000800840085010008810037084E
:1006F8002D3E860001080800860087012808C03FB3
:100708002908C13F350808001F309B0080309A0037
:100718004001080086002808C03F2908C13F08009A
:100728009A0A03199B0A400120341F309B0080302D
:100738009A000800AF23803143019001B323803130
:10074800FE308E00AC238031B1234301901608009F
:100758004E018D10080097100800971408008F01AB
:100768008F170F131008F039063890009101911374
:1007780091121116911511109201121792169211D9
:100788009214121408007E01C92B5509D5054E0193
:100798000C120800430191120F1EDF2BBD24833178
:1007A8001725833140011816B0307C06031D080058
:1007B8002F25FC0108007A08031D921BE72B0F194F
:1007C800E72BFA0108008F190F18F42B921BF42B52
:1007D8007A08031DF42B2B250130FB00FD010800CE
:1007E8000F1C432C0130FA000C08F7007D08031D8C
:1007F800112C00305E24833143010F1D362C073045
:100808007C02031C362C08307C02031C0F2C0C3095
:100818007C02031C362C0330342C0F19402C5A242C
:1008280083317D0B232C7708FC00A1307C0603194B
:10083800212CA2307C06031D362C0630342C770878
:10084800F3007C08C024833158248331003A031D07
:100858002F2CFC0A362C02307D06031D362C043062
:10086800B724833158248331003A03193E2C4301BD
:100878009116402C430191121016FD0A08007B08BE
:10088800031D0F1D0800111B08005A2483317C0822
:100898006124833143018C005824003A0319FC0A6F
:1008A80043011016FD0A08007908080018254501BB
:1008B8008C010800F000F9000800F4007E2C202DBF
:1008C8001B2D40010E0808004001140808004001D3
:1008D8001A08080028250800252508007E014F0869
:1008E80008007E01520808007E01500808007E01B9
:1008F800510808007408F200F3017308003A03195C
:10090800862C902C720884000C3004020318902C5A
:10091800853104355E3E82000130B7240034F20090
:10092800780BA22CA5307206031D9D2C0230F8000E
:100938000800FF30F8000930B724080002307806B4
:10094800031DB22CF0307206031DAD2C0330F800E5
:100958000800FF30F8000930B7240800FF30F8001D
:100968000930B7240800F1004001BE0071085E2478
:10097800080045018E130800F600E82C73084001B2
:1009880094000800730840019A0008007308512574
:10099800080073084D25080073087E01CF00080081
:1009A80073087E01D200080073087E01D000080099
:1009B80073087E01D10008007308472D730893243B
:1009C80008000230B72408007608F400F50175081D
:1009D800003A0319F02CE52C7408033A0319C22CC9
:1009E800073A0319C62C013A0319CA2C033A03190A
:1009F800CD2C0E3A0319D02C013A0319D42C033A02
:100A08000319D82C013A0319DC2CAB3A0319E02C52
:100A1800013A0319E22C033A0319E22C123A03199A
:100A2800E42CE52C0800552D4E010D13080040015B
:100A38003D08F000BD01080040013E08F000BE017D
:100A480008007E01540808007E015308080045018B
:100A58008C018E1708004301901234259016080067
:100A680040010C0C890C0139F000F035F035F035F7
:100A78000C0C0139F100F135F1350C080139090781
:100A8800710470045A2DF0004001BC000130F800D8
:100A98000800F0007E01D4000800F0007E01D300B9
:100AA8000800FB01FA01FD01FC010800C038430100
:100AB8008D0008008431632C8431642C8431652CCA
:100AC8008431682C84316B2C84316E2C8431702CE9
:100AD8008431902C8431722C8431752C8431782C9B
:100AE80084317B2C640080010131890B772D00341F
:0A0AF8007E0155084001BD0408000E
:103F000000340134023403340434053406340734F5
:103F1000083409340A340B340C340D340E340F34A5
:103F20001034113412341334143415341634173455
:103F3000183419341A341B341C341D341E341F3405
:020000040001F9
:08000000FF3FFF3FFF3FFF3F00
:0A000E00CD3FEF3FFF3FEF3FFF3F04
:00000001FF
