:0400000080312728FC
:100008007E1480314E010C1E112885317D258031EA
:100018008331CA238031400118124E018D1C1A28E1
:100028008331AF2380318331D12380314E010D1FBD
:1000380025288331A12380318431C0248031853142
:100048001E257E10090080312928F801F901FA01DE
:10005800FB01FC01FD014001A030BA01BB01BC015C
:10006800BD01BE0184000030850040308531772510
:1000780080317E104001402804305101930017233D
:1000880080310730BC2280311423803169208031CF
:10009800C12280311C238031B92280312D23803147
:1000A800B7228031B32280316300000032238031CF
:1000B800003A03195A2836238031003A0319662872
:1000C80078208031630000005A28072380315C22A1
:1000D8008031003A03197128A4227E01CE013A1614
:1000E80040011212181608004023803140011816EA
:1000F800432380315E228031003A031D892879220A
:100108008031B32240011812080000307222803179
:10011800772280313C0E03390319AD2886228031BD
:10012800AD28A42280318328C6208031ED2180317A
:10013800212280318328FF21803158218031832872
:10014800C6208031FF218031ED218031212280318C
:10015800A12840013C0E0339B800B9013908003A1A
:100168000319B72883283808003A03199528013A53
:1001780003199828033A03199F28013A0319A42858
:100188008328080040013C0C890C0339090709073A
:100198000907B6001408AD001A08AE003D238031E7
:1001A8004001AF003A2380314001B0007E014F0882
:1001B8004001B1007E0152084001B2007E015008A2
:1001C8004001B3007E0151084001B400E8218031AC
:1001D800B70108303702031807293708A800A030EC
:1001E800A8352807A90036352907AA008600003057
:1001F8008701C03FC13F37082D3E86000108B12165
:100208008031B70AED28EB218031B500C039A8004C
:10021800A901A835A90DA835A90D3635A03E832317
:1002280080313039A800F030A901A80EA90EA9051F
:1002380028080F39A904F030A8053635A23E9623C0
:10024800803135080C39A8000630A901A835A90D58
:10025800890B2A293635A43E832380310339A80027
:10026800A901A900A8013635A63E96238031B70119
:10027800083037020318080037082D3E860087012A
:100288000108A800A9013708AA00A030AA352A0742
:10029800AB0036352B07AC008600280881044131B5
:1002A80029088104B70A3C294001B5013C080339F3
:1002B800090709070907B600B701E82180310430AA
:1002C800370203188829B535B53570238031860083
:1002D8008701403FAB00413FAC00B50437082D3ED5
:1002E8008600702380317A238031B1218031B70AAA
:1002F800632937082D3E86008701702380317A23D1
:100308008031B1218031B70A08303702031C7D29BA
:10031800EB2180313506031DAF292D0894002E08E6
:100328009A002F0881228031400130087C228031D8
:10033800400131087E01CF00400132087E01D20021
:10034800400133087E01D000400134087E01D1000D
:1003580013238031102B0A30722AA4003F08A6000C
:100368000730A701A635A70D890BB6290F30A717A7
:10037800A5003A08A000A1012406A2002108A300B4
:100388002208BB00BA013B08031908003B08A1007A
:100398003A08A000250AD229A136A00C890BD02939
:1003A800200821040319DC292608BA062708BB06F9
:1003B8002708A1002608A000A136A00C2008A60046
:1003C8002108A700A503C729BA01BB0108003A08FC
:1003D80008005C228031003A031D080050019E018C
:1003E8001E139C231E161E1555309F00AA309F0011
:1003F8009E141E11080040013C0E890C890C03391B
:10040800013A031D0A2A94019A0108003C0E890C3E
:10041800890C0339023A031D152A9401FF309A000A
:1004280008003C0E890C890C0339033A031D0800A7
:10043800FF3094007E01CF0108005C228031003A31
:10044800031D080050019E011E139C2380311E12BB
:100458009E161E154001A5012535A03E8600870180
:10046800403F50019C00413F9D001F304001250640
:10047800031D402A50019E12553050019F00AA309A
:100488009F009E141F304001250603194D2A500174
:100498009A0A40012030A50A2502031C302A50017F
:1004A8009E1255309F00AA309F009E141E114A2BA1
:1004B8007908080003307806031D6D2A5C22803114
:1004C800003A031901340830722280317722181259
:1004D8000034073072228031772200344001A100B5
:1004E800BE002108472BF80108004E018D100800B6
:1004F8004001A0007E01D40008004001A0007E0158
:10050800D30008005C228031003A031D0800500126
:100518009E011E1390238031A00150011E1440013A
:100528002035A03E8600870150011C08C03F1D08E9
:10053800C13F8B238031A00A200203180800912AAA
:100548000B2380319A01FF3094007E01CF00D10047
:10055800D001D20100308122803100307C2A8B0109
:100568008B170B170800161608004E0117170800FE
:10057800A000BA01BB01BF000800E8228031430196
:100588009001EB2280314301B6238031D42280319F
:10059800FE308E00792280314523430190160800F1
:1005A80040010C0C890C0139A000A035A035A035FC
:1005B8000C0C0139A100A135A1350C080139090736
:1005C8002104200485315B2D4E019710080040015D
:1005D800131713167E014313431208309C0007308B
:1005E8009E00013042018C008D000C307D01C60058
:1005F8000E30C50040011214921412157E013810F5
:10060800B81038110800BC018622803158297E01B3
:10061800D301D401D501102B4001BD010800CC2B1A
:10062800BC01F80108004001BE01F901BD01080044
:1006380045018E010E088F3940388E008F010F0852
:10064800E03908388F008F170430900067308D002C
:100658000800FB01FA01FD01FC01080043010F0E2F
:10066800013908007808031D013400347E0154085C
:1006780008007E01530808008B130B130800FC01C7
:10068800080097140800A000F90008009E011E1336
:1006980090238031A40150011E1440012435A03E4E
:1006A80086008701403FA200413FA30050011D087A
:1006B80040012306031D642B50011C08400122063B
:1006C8000319682B0B30722A50018B238031A40A3E
:1006D8002402031808004F2B3608A800A030A835BC
:1006E8002807A90037352907AA00080084008501D2
:1006F8000008810037082D3E8600010808008600A2
:1007080087012808C03F2908C13F350808009A0A10
:1007180003199B0A400120341F309B0080309A0047
:100728004001080086002808C03F2908C13F08008A
:100738001F309B0080309A000800B22380314301AB
:100748009001B6238031FE308E00AF238031B42370
:100758004301901608004E018D10080097100800FC
:10076800971408008F018F170F131008F0390638F7
:100778009000910191139112111691151110920187
:100788001217921692119214121408007E01CC2BA3
:100798005509D5054E010C120800430191120F1E90
:1007A800E22BC4248331C024833140011816B030B1
:1007B8007C06031D08003525FC0108007A08031D86
:1007C800921BEA2B0F19EA2BFA0108008F190F1850
:1007D800F72B921BF72B7A08031DF72B31250130D5
:1007E800FB00FD0108000F1C462C0130FA000C0824
:1007F800F7007D08031D142C003061248331430168
:100808000F1D392C07307C02031C392C08307C0260
:10081800031C122C0C307C02031C392C0330372C9F
:100828000F19432C5D2483317D0B262C7708FC009F
:10083800A1307C060319242CA2307C06031D392C18
:100848000630372C7708F3007C08C72483315B24F3
:100858008331003A031D322CFC0A392C02307D0604
:10086800031D392C0430BA2483315B248331003AC8
:100878000319412C43019116432C43019112101680
:10088800FD0A08007B08031D0F1D0800111B080046
:100898005D2483317C086424833143018C005B240C
:1008A800003A0319FC0A43011016FD0A08007908EA
:1008B80008001E2545018C010800F000F900080019
:1008C800F400812C262D212D40010E08080040013E
:1008D8001408080040011A0808002E2508002B25D6
:1008E80008007E014F0808007E01520808007E01BA
:1008F800500808007E01510808007408F200F3014E
:100908007308003A0319892C932C720884000C3060
:1009180004020318932C853104355F3E82000130B0
:10092800BA240034F200780BA52CA5307206031DFA
:10093800A02C0230F8000800FF30F8000930BA2473
:10094800080002307806031DB52CF0307206031D2E
:10095800B02C0330F8000800FF30F8000930BA2442
:100968000800FF30F8000930BA240800F1004001FF
:10097800BE00710861240800FB01FA01FD010800AE
:1009880045018E130800F600EF2C7308400194000F
:100998000800730840019A000800730857250800EA
:1009A80073085325080073087E01CF0008007308F8
:1009B8007E01D200080073087E01D0000800730889
:1009C8007E01D100080073084D2D73089624080095
:1009D8000230BA2408007608F400F5017508003AD8
:1009E8000319F72CEC2C7408033A0319C92C073A9D
:1009F8000319CD2C013A0319D12C033A0319D42C2D
:100A08000E3A0319D72C013A0319DB2C033A0319C0
:100A1800DF2C013A0319E32CAB3A0319E72C013A0E
:100A28000319E92C033A0319E92C123A0319EB2CA0
:100A3800EC2C08004E010D13080040013D08F000A1
:100A4800BD01080040013E08F000BE0108007E011B
:100A5800540808007E015308080045018C018E17D0
:100A68000800430190123A259016080040010C0C2A
:100A7800890C0139F000F035F035F0350C0C0139EE
:100A8800F100F135F1350C080139090771047004DA
:100A98005B2DF0004001BC000130F8000800F000B8
:100AA8007E01D4000800F0007E01D3000800C038A1
:100AB80043018D0008008431662C8431672C843111
:100AC800682C84316B2C84316E2C8431712C8431E8
:100AD800732C8431932C8431752C8431782C843197
:100AE8007B2C84317E2C640080010131890B782DA8
:0C0AF80000347E0155084001BD040800D8
:103F000000340134023403340434053406340734F5
:103F1000083409340A340B340C340D340E340F34A5
:103F20001034113412341334143415341634173455
:103F3000183419341A341B341C341D341E341F3405
:020000040001F9
:08000000FF3FFF3FFF3FFF3F00
:0A000E00CD3FEF3FFF3FEF3FFF3F04
:00000001FF
