:020000040000FA
:0400000080311B2808
:100008007E1480314E010C1E11288531292580313E
:1000180083318D238031400118124E018D1C19281F
:1000280085312E258031833194237E10090080315B
:100038001D28F801F901FA01FB01FC01FD0140014D
:10004800A030BA01BB01BC01BD01840000308500AD
:1000580040308531232580317E104001332804301B
:1000680051019300152380310730A92280311223D2
:10007800803158208031AE2280311A238031A62267
:100088008031A2228031630000001E238031003AB3
:100098000319492822238031003A0319552867207B
:1000A8008031630000004928052380314B228031CC
:1000B800003A0319602893227E01CE013A164001C6
:1000C8001212181608002C238031400118162F230D
:1000D80080314D228031003A031D78286822803112
:1000E800A2224001181208000030612280316622E5
:1000F80080313C0E033903199C28752280319C28D5
:10010800932280317228B5208031DC218031102281
:1001180080317228EE218031472180317228B52044
:100128008031EE218031DC2180311022803190280D
:1001380040013C0E0339B800B9013908003A0319E7
:10014800A62872283808003A03198428013A0319A6
:100158008728033A03198E28013A0319932872282D
:10016800080040013C0C890C0339090709070907F5
:10017800B6001408AD001A08AE00292380314001EA
:10018800AF00262380314001B0007E014F084001B6
:10019800B1007E0152084001B2007E0150084001C2
:1001A800B3007E0151084001B400D7218031B70166
:1001B800083037020318F6283708A800A030A835F9
:1001C8002807A90036352907AA00860000308701CC
:1001D800C03FC13F37082D3E86000108A02180316D
:1001E800B70ADC28DA218031B500C039A800A90196
:1001F800A835A90DA835A90D3635A03E6F23803145
:100208003039A800F030A901A80EA90EA9052808C0
:100218000F39A904F030A8053635A23E8223803173
:1002280035080C39A8000630A901A835A90D890B95
:1002380019293635A43E6F2380310339A800A90156
:10024800A900A8013635A63E82238031B7010830BF
:1002580037020318080037082D3E86008701010879
:10026800A800A9013708AA00A030AA352A07AB00C0
:1002780036352B07AC00860028088104413129084F
:100288008104B70A2B294001B5013C080339090745
:1002980009070907B600B701D721803104303702B2
:1002A80003187729B535B5355C2380318600870179
:1002B800403FAB00413FAC00B50437082D3E8600F7
:1002C8005C23803166238031A0218031B70A52290E
:1002D80037082D3E860087015C23803166238031F4
:1002E800A0218031B70A08303702031C6C29DA21B3
:1002F80080313506031D9E292D0894002E089A008A
:100308002F0870228031400130086B228031400173
:1003180031087E01CF00400132087E01D200400141
:1003280033087E01D000400134087E01D10011233A
:1003380080310E2B0A30612AA4003E08A60007303F
:10034800A701A635A70D890BA5290F30A717A5006A
:100358003A08A000A1012406A2002108A30022084F
:10036800BB00BA013B08031908003B08A1003A0882
:10037800A000250AC129A136A00C890BBF29200895
:1003880021040319CB292608BA062708BB06270823
:10039800A1002608A000A136A00C2008A60021086C
:1003A800A700A503B629BA01BB0108003A0808004E
:1003B8004B228031003A031D080050019E011E1394
:1003C80088231E161E1555309F00AA309F009E14C4
:1003D8001E11080040013C0E890C890C0339013AB2
:1003E800031DF92994019A0108003C0E890C890C17
:1003F8000339023A031D042A9401FF309A000800C9
:100408003C0E890C890C0339033A031D0800FF30A0
:1004180094007E01CF0108004B228031003A031D71
:10042800080050019E011E13882380311E129E165B
:100438001E154001A5012535A03E86008701403FD5
:1004480050019C00413F9D001F3040012506031DBF
:100458002F2A50019E12553050019F00AA309F004C
:100468009E141F304001250603193C2A50019A0AA0
:1004780040012030A50A2502031C1F2A50019E12A4
:1004880055309F00AA309F009E141E11362B790804
:10049800080003307806031D5C2A4B228031003A9D
:1004A80003190134083061228031662218120034A1
:1004B800073061228031662200344001A100FA0031
:1004C8002108332BF80108004E018D100800400167
:1004D800A0007E01D40008004001A0007E01D300E6
:1004E80008004B228031003A031D080050019E018C
:1004F8001E137C238031A00150011E1440012035B9
:10050800A03E8600870150011C08C03F1D08C13F5E
:1005180077238031A00A200203180800802A0923C3
:1005280080319A01FF3094007E01CF00D100D001C4
:10053800D20100307022803100306B2A8B018B177A
:100548000B1708004E0116160800A000BA01BB01DF
:10055800BE000800E622803143019001E922803183
:1005680043018F018F170F131008F03906389000D8
:1005780091019113911211169115111092011217F0
:100588009216921192141214D2228031FE308E00EB
:1005980068228031312343019016080040010C0C79
:1005A800890C0139A000A035A035A0350C0C013903
:1005B800A100A135A1350C0801390907210420043F
:1005C8008531072D4E0197100800400113171316A7
:1005D8007E014313431208309C0007309E0001300F
:1005E80042018C008D000C307D01C6000E30C50024
:1005F80040011214921412157E013810B8103811E7
:100608000800BC017522803147297E01D301D4013D
:10061800D5010E2B4001BD0108008F2BBC01F8014C
:100628000800FA01F9014001BD010800FD01FC01C3
:10063800FB01080043010F0E013908007808031D6B
:10064800013400347E01540808007E015308080074
:100658008B130B130800FB01080097140800A00077
:10066800F90008009E011E137C238031A40150016B
:100678001E1440012435A03E86008701403FA20099
:10068800413FA30050011D0840012306031D502BC4
:1006980050011C08400122060319542B0B30612A13
:1006A800500177238031A40A2402031808003B2B49
:1006B8003608A800A030A8352807A900373529072B
:1006C800AA000800840085010008810037082D3E33
:1006D800860001080800860087012808C03F29080D
:1006E800C13F350808009A0A03199B0A40012034C3
:1006F8001F309B0080309A004001080086002808BF
:10070800C03F2908C13F08001F309B0080309A0075
:1007180008007E018F2B5509D5054E010C120800E3
:10072800430191120F1EA32BFC01FD014001181675
:10073800B0307B06031D0800E124FB0108007D0C96
:100748000339013A0319921BAE2B0F19AE2BF9305E
:10075800FD0508008F190F18BA2B921BBA2B7D0CB8
:100768000339031DBA2B7D14FC0108000F1C092C4A
:100778007D08F9390238FD000C08F7007C08031DD4
:10078800D92B00301D24833143010F1DFC2B07306A
:100798007B02031CFC2B08307B02031CD72B0C307C
:1007A8007B02031CFC2B0330FA2B0F19062C7C0B45
:1007B800E92B7708FB00A1307B060319E72BA23051
:1007C8007B06031DFC2B0630FA2B7708F3007B0809
:1007D8007B2483311B248331003A031DF52BFB0A4C
:1007E800FC2B02307C06031DFC2B0430762483315D
:1007F8001B248331003A0319042C43019116062C5B
:10080800430191121016FC0A08007D180F1D0800FC
:10081800111B08007B082024833143018C001B2412
:10082800003A0319FB0A43011016FC0A080079086C
:100838000800F000F9000800F4003D2CD72CD22C59
:1008480040010E08080040011408080040011A0879
:100858000800DE240800DB2408007E014F08080099
:100868007E01520808007E01500808007E015108E8
:1008780008007408F200F3017308003A0319452CC4
:100888004F2C720884000C30040203184F2C853159
:1008980004350B3E8200013076240034F200780BD8
:1008A800612CA5307206031D5C2C0230F80008008C
:1008B800FF30F80009307624080002307806031D5E
:1008C800712CF0307206031D6C2C0330F800080000
:1008D800FF30F800093076240800FF30F8000930AE
:1008E80076240800F100FA0071081D240800F600BB
:1008F800A32C7308400194000800730840019A0073
:1009080008007308032508007308FF24080073080B
:100918007E01CF00080073087E01D200080073082A
:100928007E01D000080073087E01D100080073081A
:10093800F92C73085224080002307624080076083F
:10094800F400F5017508003A0319AB2CA02C7408C3
:10095800033A03197D2C073A0319812C013A03192C
:10096800852C033A0319882C0E3A03198B2C013A6B
:1009780003198F2C033A0319932C013A0319972C66
:10098800AB3A03199B2C013A03199D2C033A03191E
:100998009D2C123A03199F2CA02C080040013D08F9
:1009A800F000BD0108007A08F000FA0108007E0195
:1009B800540808007E015308080043019012E624F9
:1009C8009016080040010C0C890C0139F000F03534
:1009D800F035F0350C0C0139F100F135F1350C0822
:1009E8000139090771047004072DF0004001BC00AB
:1009F8000130F8000800F0007E01D4000800F00083
:100A08007E01D3000800C03843018D0008008431FE
:100A1800222C8431232C8431242C8431272C8431BA
:100A28002A2C84312D2C84312F2C84314F2C843165
:100A3800312C8431342C8431372C84313A2C6400A5
:100A480080010131890B242D00347E0155084001B5
:080A5800BD0408008D10080028
:103F000000340134023403340434053406340734F5
:103F1000083409340A340B340C340D340E340F34A5
:103F20001034113412341334143415341634173455
:103F3000183419341A341B341C341D341E341F3405
:020000040001F9
:04000E00CD3FEF3FB4
:04001400EF3FFF3F7C
:00000001FF
