:020000040000FA
:0400000080311B2808
:100008007E1480314E010C1E112886311126803154
:100018008531E4258031400118124E018D1C1928C4
:10002800863187268031813105217E100900803193
:100038001D28FC01FD013C3084000030850008309B
:10004800863118268031A030840000308500403089
:10005800863118267E1040018431692C40013E0CFF
:10006800890C0339A9000230A935FF3E031D382841
:100078002935AA002A08B7001408A9002908AE00E3
:100088001A08A9002908AF0086315B268031400193
:10009800A9002908B00086315E2680314001A900F8
:1000A8002908B1007E014F084001A9002908B200C3
:1000B8007E0152084001A9002908B3007E015008BA
:1000C8004001A9002908B4007E0151084001A90097
:1000D8002908B50086316A268031B801083038020F
:1000E800031895283808A9000130A935890B792803
:1000F800A0302907AA0037352A07AB002B0886004D
:1001080087010030C03FC13F38082E3E8600870176
:1001180001088331782380310130A9002908B80704
:100128007228863183268031A9002908B60036084E
:10013800C039A900AA01A935AA0DA935AA0D3735D4
:10014800A03E860087012908C03F2A08C13F36081B
:100158003039A900AA01A90EAA0EF030AA0529086B
:100168000F39AA04F030A9053735A23E8600870169
:100178002908C03F2A08C13F36080C39A900AA013E
:100188000630A935AA0D890BC5283735A43E860047
:1001980087012908C03F2A08C13F36080339A9004A
:1001A800AA012908AA00A9013735A63E86008701B9
:1001B8002908C03F2A08C13FB8010830380203188F
:1001C800080038082E3E860087010108A900AA0108
:1001D8003808AB000130AB35890BEF28A0302B076E
:1001E800AC0037352C07AD002D088600870129089B
:1001F800810441312A0881040130A9002908B8077F
:10020800E128430191120F1E15294001C201C301C3
:100218001816B0307D06031D080086313026FD0112
:1002280008004001430C0339013A031D2329430107
:10023800921F0F192329F9304001C3050800430113
:100248008F190F183229921B32294001430C0339A8
:10025800003A031D32294314C201080043010F1C50
:100268009A2940014308F9390238C30043010C08B0
:10027800FA007A08FB0040014208031D58290030A3
:1002880086313626813143010F1D882907307D02CA
:10029800031C882908307D02031C56290C307D0276
:1002A800031C88290330852943010F19932940012C
:1002B8004203031D6D297B08FA007A08FD00A1306E
:1002C8007D0603196B29A2307D06031D8829063097
:1002D80085297B08FA007A08F6007D088231CA224F
:1002E8008131863176268131003A031D802901301B
:1002F800FA007A08FD07882902304206031D88297A
:1003080004308531C0258131863176268131003A25
:10031800031991294301911693294301911210164B
:100328000130FA007A084001C20708004001431C66
:10033800080043010F1D0800111B08007D088331C8
:100348002523813143018C00863176268131003A9C
:10035800031DB2290130FA007A08FD07430110167F
:100368000130FA007A084001C20708004001B701CD
:100378003E080339A9000230A935FF3E031DC029F4
:100388002935AA002A08B800B90186316A268131C0
:10039800043039020318392A3708A9000130A93571
:1003A800FF3E031DD3292935AA002A08B7003808BB
:1003B800A9000130A935890BDE29A0302907AA0038
:1003C80039352A07AB002B0886008701403FAC006F
:1003D800413FAD002D08AE002E08B7043808A9002B
:1003E8000130A935890BF529A0302907AA0039352C
:1003F8002A07AB002B08860087010108AC003908E2
:100408002F3E860087012C08810039082F3E860080
:10041800870101088331782381310130A900290837
:10042800B907CC293808A9000130A935890B192A40
:10043800A0302907AA0039352A07AB002B08860007
:1004480087010108AC0039082F3E860087012C0877
:10045800810039082F3E86008701010883317823FF
:1004680081310130A9002908B90708303902031C75
:10047800162A8631832681313706031D662A2F08FE
:10048800940030089A0031088631242681314001D1
:10049800320886312A268131400133087E01CF0097
:1004A800400134087E01D200400135087E01D000A9
:1004B800400136087E01D1008531D325813186314E
:1004C800672608000A308531CA2508008631582673
:1004D80082314001181686317F26823185310D25FB
:1004E8008231003A03199E2AA62A8431992482313E
:1004F800B22A85318F2582319E2A8031322082317D
:100508008531792582318331BF2382319E2A843116
:10051800EB2482319B2A8031322082318431EB24D2
:1005280082318531792582318331BF23823181310E
:10053800BA218231863170268231863150264001B7
:100548001812080000308531CA258231863181268B
:1005580082313E0E0339003A031D792A3E0E0339D3
:10056800BA00BB013B08003A0319BB2A9E2A3A0885
:10057800003A03197D2A013A0319812A033A03191B
:100588008B2A013A03198F2A9E2A0800F900F62AB5
:1005980076089400080076089A00080076088631E4
:1005A80046260800760886314B26080076087E0124
:1005B800CF00080076087E01D200080076087E0188
:1005C800D000080076087E01D10008007608853141
:1005D800B6250800760884313724080002308531B2
:1005E800C02508007908F700F8017808003A0319CF
:1005F800FE2AF22A7708033A0319CC2A073A031984
:10060800CF2A013A0319D22A033A0319D62A0E3AF5
:100618000319DA2A013A0319DE2A033A0319E22AEE
:10062800013A0319E62AAB3A0319EA2A013A0319EF
:10063800EE2A033A0319EE2A123A0319F12AF22A8A
:100648000800F600482B8531EC2508008531F42593
:10065800080040010E080800400114080800400185
:100668001A08080086317926080086317C26080099
:100678007E014F0808007E01520808007E015008DC
:1006880008007E01510808007608F400F501750895
:10069800003A0319502B732B7408003A0319272BBF
:1006A800013A03192A2B033A03192D2B013A03198E
:1006B800302B073A0319332B013A0319362B033A27
:1006C8000319392B0E3A03193C2B013A03193F2B16
:1006D800033A0319422B013A0319452B732B0130B6
:1006E8008531C02500300800A5004408A000A101FC
:1006F8000730A035A10D890B7D2B00302004A70001
:1007080080302104A8000F30A0002008A600FF3088
:100718003C05A00000303D05A10020082506A200E8
:100728002108A3002208A300A2012208BC00230874
:10073800BD003D08031908003D08A1003C08A000C1
:10074800260AA82BA136A00C890BA62B2008210469
:100758000319B22B2708BC062808BD062808A100E3
:100768002708A000A136A00C2008A7002108A8008F
:100778000130A6029D2B863164268331003A031D81
:10078800080050019E011E130F309B0080309A0014
:100798001E129E161E154001A8012835A03E86008F
:1007A8008701403F50019C00413F9D001F304001A0
:1007B8002806031DE12B50019E12553050019F0061
:1007C800AA309F009E141F30400128060319F12B00
:1007D8000130A700270850019A0701304001A700FF
:1007E8002708A80720302802031CD12B50019E128D
:1007F80055309F00AA309F009E141E118431052495
:1008080008009E011E130F309B0080309A004001A3
:10081800A60150011E1440012635A03E860087011E
:10082800403FA400413FA50050011D084001250696
:10083800031D222C50011C08400124060319282CF2
:100848000B308531CA250800013050019A07003065
:100858009B3D01304001A4002408A6072030260251
:10086800031808000D2CF5007C03031D4C2CA53043
:100878007506031D442C0230F4007408FC000800BF
:10088800FF30F4007408FC0009308531C0250800E9
:1008980002307C06031D612CF0307506031D592CAF
:1008A8000330F4007408FC000800FF30F4007408FA
:1008B800FC0009308531C0250800FF30F4007408B9
:1008C800FC0009308531C025080003305101930030
:1008D80086314126843107308531DC2584318631E3
:1008E800612684318531A42584318431C224843140
:1008F80086313C26843186317326843186315026F0
:10090800843163000000863154268431003A03198B
:10091800872C8531FC258431003A0319962C8231C5
:100928006A22843163000000872C86316426843172
:10093800003A031D080050019E011E130F309B0052
:1009480080309A004001A10150011E144001213558
:10095800A03E8600870150011C08C03F1D08C13F0A
:1009680001309A0700309B3D01304001A00020086B
:10097800A1072030210203180800A82C86316D2613
:1009880084314301900185312A25843143018F0147
:100998008F170F131008F039063890009101911342
:1009A80091121116911511109201121792169211A7
:1009B80092141214853147258431FE308E00863119
:1009C800702684318631852643019016080040013F
:1009D8003E0E890C890C0339013A031DF62C94014B
:1009E8009A0108003E0E890C890C0339023A031D4E
:1009F800012D9401FF309A0008003E0E890C890CE5
:100A08000339033A031D0800FF3094007E01CF012B
:100A1800080003307C06031D222D863164268531AB
:100A2800003A0319202D08308531CA2585318631D1
:100A3800812618120030080001300800073085317F
:100A4800CA258531863181260030080040011317F8
:100A580013167E014313431208309C0007309E0092
:100A6800013042018C0001308D000C307D01C60040
:100A78000E30C50040011214921412157E01381070
:100A8800B8103811080040010C0C890C0139A0007D
:100A98000330A035890B4D2D0C0C0139A100023013
:100AA800A135890B542D0C080139090721042004AC
:100AB800C03843018D00080040010C0C890C013935
:100AC800F0000330F035890B662D0C0C0139F1006C
:100AD8000230F135890B6D2D0C08013909077104B5
:100AE8007004C03843018D000800863164268531C2
:100AF800003A031D080050019E011E130F309B0091
:100B080080309A001E161E1555309F00AA309F008F
:100B18009E141E1108008631032685319A01FF3084
:100B28009400FF307E01CF00FF30D100D001D20108
:100B38000030863124268531003086312A26080087
:100B480086310A268531863164268531003A0319B3
:100B5800AF2D85318F257E01CE013A164001121244
:100B680018160800F1007108F0007008BE00013086
:100B7800F0007008FC000800F3007308F200720827
:100B88004001C1007308863136260800A3002308F7
:100B9800A2002208C100230886311E260800550934
:100BA8004001A00020087E01D5054E010C12080066
:100BB800A100BC01BD012108A0002008C400080054
:100BC8007E015509F0007008D5054E010C12080089
:100BD80040014108F0007008F100C10171080800E7
:100BE80040013F08F0007008F100BF0171080800DB
:100BF8007C080319012E01300800003008007E012E
:100C0800D301D401D501863167260800BE0184319D
:100C1800992486318131BA2108007E015508F000F7
:100C280070084001BF040800640080010131890B8D
:100C3800192E0034A1002108A0002008C0000800D7
:100C48004001A00020087E01D30008004001A00058
:100C580020087E01D40008004301901285316025E8
:100C680090160800F1007108F0007008C000080034
:100C78004001C301C201FD0108004001C101C001DA
:100C8800BF010800F00070087E01D3000800F000E2
:100C980070087E01D40008008B018B170B17080021
:100CA80043010F0E013908008B130B1308007E0156
:100CB800530808007E0154080800BE01FC01080022
:100CC8004001400808004001BF010800BC01BD0107
:100CD80008004E01971008004E018D1008004E01C3
:100CE800161608004001400808007E015308080055
:100CF8007E0154080800FD010800FC0108003C08BA
:0A0D08000800971408008D10080081
:101F00000034013402340334043405340634073415
:101F1000083409340A340B340C340D340E340F34C5
:101F20001034113412341334143415341634173475
:101F3000183419341A341B341C341D341E341F3425
:020000040001F9
:04000E00CD3FEF3FB4
:04001400EF3FFF3F7C
:00000001FF
