:020000001A28BC
:100008007E1480314E010C1E0D2861253B254001D0
:1000180018124E018D1C1228EB25E7204E010D1FEA
:1000280018284724A725FA257E100900A02F40018B
:100038003E0C890C0339A9000230A935FF3E031D87
:1000480021282935AA002A08B7001408A900290878
:10005800AE001A08A9002908AF00C7254001A90069
:100068002908B000CA254001A9002908B1007E016D
:100078004F084001A9002908B2007E01520840013A
:10008800A9002908B3007E0150084001A9002908E9
:10009800B4007E0151084001A9002908B500B8251F
:1000A8004001B80108303802031878283808A90038
:1000B8000130A935890B5D28A0302907AA003735FA
:1000C8002A07AB002B08860087010030C03FC13FDC
:1000D80038082E3E8600870101088D220130400134
:1000E800A9002908B8075628D0254001A9002908E1
:1000F800B6003608C039A900AA01A935AA0DA93544
:10010800AA0D3735A03E860087012908C03F2A0876
:10011800C13F36083039A900AA01A90EAA0EF0304D
:10012800AA0529080F39AA04F030A9053735A23ED7
:10013800860087012908C03F2A08C13F36080C39C4
:10014800A900AA010630A935AA0D890BA7283735B9
:10015800A43E860087012908C03F2A08C13F360807
:100168000339A900AA012908AA00A9013735A63E22
:10017800860087012908C03F2A08C13FB801083016
:1001880038020318080038082E3E86008701010847
:10019800A900AA013808AB000130AB35890BD1287A
:1001A800A0302B07AC0037352C07AD002D08860092
:1001B80087012908810441312A0881040130A900F6
:1001C8002908B807C328430191120F1EF628F12504
:1001D800A72540011816B0307D06031D08008D259F
:1001E800FD01080040014208031901294301921F3B
:1001F8000F1901294001C201080043018F190F1886
:100208001329921B132940014208031D1329BC25F9
:100218000130FA007A084001C300C4010800430114
:100228000F1C73290130FA007A084001C20043010B
:100238000C08FA007A08FB0040014408031D37291E
:100248000030682543010F1D632907307D02031C18
:10025800632908307D02031C35290C307D02031CFC
:1002680063290330622943010F196C29C025400115
:100278004403031D4D297B08FA007A08FD00A130CC
:100288007D0603194B29A2307D06031D632906301C
:1002980062297B08FA007A08F6007D083522EE25E7
:1002A800003A031D5C290130FA007A08FD0763292A
:1002B800023040014406031D632904303225EE252F
:1002C800003A03196A29430191166C2943019112D6
:1002D80010160130FA007A084001C40708004001EE
:1002E80043080319080043010F1D0800111B0800EB
:1002F800C0257D08B12743018C00EE25003A031D77
:1003080089290130FA007A08FD07430110160130E7
:10031800FA007A084001C40708004001B7013E0806
:100328000339A9000230A935FF3E031D9729293555
:10033800AA002A08B800B901B825043040013902DA
:1003480003180D2A3708A9000130A935FF3E031DFF
:10035800A9292935AA002A08B7003808A9000130B8
:10036800A935890BB429A0302907AA0039352A07ED
:10037800AB002B0886008701403FAC00413FAD0031
:100388002D08AE002E08B7043808A9000130A93599
:10039800890BCB29A0302907AA0039352A07AB00D9
:1003A8002B08860087010108AC0039082F3E86001B
:1003B80087012C08810039082F3E86008701010833
:1003C8008D2201304001A9002908B907A129380860
:1003D800A9000130A935890BEE29A0302907AA0008
:1003E80039352A07AB002B08860087010108AC00C5
:1003F80039082F3E860087012C08810039082F3ED6
:100408008600870101088D2201304001A9002908D2
:10041800B90708303902031CEB29D02540013706FB
:10042800031D322A2F08940030089A0031088125CC
:10043800400132088725400133087E01CF00400182
:1004480034087E01D200400135087E01D000400109
:1004580036087E01D1001625D32508000A3020254C
:100468000800F9005E2A7608400194000800760822
:1004780040019A00080076089D2508007608A22504
:10048800080076087E01CF00080076087E01D200B9
:10049800080076087E01D000080076087E01D100A9
:1004A800080076080B25080076089123080002301A
:1004B800322508007908F700F8017808003A03198E
:1004C800662A5B2A7708033A0319372A073A031979
:1004D8003B2A013A03193F2A033A0319422A0E3AE2
:1004E8000319452A013A0319492A033A03194D2ADF
:1004F800013A0319512AAB3A0319552A013A03194B
:10050800582A033A0319582A123A03195A2A5B2A15
:1005180008004001A5004508A000A1010730A0354A
:10052800A10D890B932A00302004A70080302104F4
:10053800A8000F30A0002008A600FF303C05A0004E
:1005480000303D05A10020082506A2002108A300CF
:100558002208A300A2012208BC002308BD003D0810
:10056800A1003C08A0002108A000A1012008210446
:10057800031908003D08A1003C08A000260AC62A65
:10058800A136A00C890BC42A200821040319D02AFB
:100598002708BC062808BD062808A1002708A000CF
:1005A800A136A00C2008A7002108A8000130A60247
:1005B800B32ACD25003A031D080050019E011E13E1
:1005C80007309B0080309A001E129E161E154001AF
:1005D800A8012835A03E86008701403F50019C00B5
:1005E800413F9D001F3040012806031DFD2A500190
:1005F8009E12553050019F00AA309F009E141F3054
:100608004001280603190D2B0130A70027085001C7
:100618009A0701304001A7002708A80720302802C0
:10062800031CED2A50019E1255309F00AA309F00EE
:100638009E141E115F230800C42540011816FD25CD
:10064800B224003A0319382B3D2BC023462BED2446
:10065800382B1B20C824DD22382BE723372B1B20FF
:10066800E723C824DD229121DC25AC25400118129E
:10067800080000302025FF2540013E0E0339003ACE
:10068800031D292B40013E0E0339BA00BB013B086C
:10069800003A0319502B382B3A08003A03192B2B30
:1006A800013A03192D2B033A0319312B013A031987
:1006B800332B382B080050019E011E1307309B0076
:1006C80080309A004001A60150011E1440012635D1
:1006D800A03E86008701403FA400413FA50050018D
:1006E8001D0840012506031D7D2B50011C084001F3
:1006F80024060319822B0B302025080001305001F5
:100708009A0700309B3D01304001A4002408A60749
:100718002030260203180800682BF5007C03031D0F
:10072800A52BA5307506031D9E2B0230F400740816
:10073800FC000800FF30F4007408FC000930322582
:10074800080002307C06031DB92BF0307506031D26
:10075800B22B0330F4007408FC000800FF30F400EA
:100768007408FC00093032250800FF30F4007408D2
:10077800FC00093032250800CD25003A031D080089
:1007880050019E011E1307309B0080309A004001E3
:10079800A10150011E1440012135A03E86008701A9
:1007A80050011C08C03F1D08C13F01309A070030A6
:1007B8009B3D01304001A0002008A1072030210204
:1007C80003180800CD2B40013E0E890C890C033913
:1007D800013A031DF22B94019A0108003E0E890C80
:1007E800890C0339023A031DFD2B9401FF309A004E
:1007F80008003E0E890C890C0339033A031D0800D2
:10080800FF3094007E01CF010800D92543019001F3
:100818002A2443018F018F170F131008F039063867
:1008280090009101911391121116911511109201D6
:10083800121792169211921412148024FE3043015A
:100848008E00DC25D62543019016080040011317B9
:1008580013167E014313431208309C0007309E0094
:10086800013042018C0001308D000C307D01C60042
:100878000E30C50040011214921412157E01381072
:10088800B81038110800E825430190018F018F172F
:100898000F131008F0390638900091019113911246
:1008A80011169115111092011217921692119214A5
:1008B8001214FE308E00EB25E52543019016080042
:1008C800043051019300932507302925B425FE24CF
:1008D8000924DC24DF257525E225AC25630000000A
:1008E800B025003A0319742C5325003A03197D2CBE
:1008F800202363000000742C40010C0C890C013982
:10090800A0000330A035890B862C0C0C0139A100FE
:100918000230A135890B8D2C0C08013909072104F7
:100928002004C03843018D00080040010C0C890CDC
:100938000139F0000330F035890B9F2C0C0C01397C
:10094800F1000230F135890BA62C0C080139090792
:1009580071047004C03843018D00080003307C0620
:10096800031DC32CCD25003A0319C12C08302025BE
:10097800FF25400118120030080001300800073038
:100988002025FF2500300800CD25003A031D08006A
:1009980050019E011E1307309B0080309A001E16DE
:1009A8001E1555309F00AA309F009E141E11080086
:1009B80045018E010E088F3940388E008F010F08CF
:1009C800E03908388F008F170430900067308D00A9
:1009D80008007B2540019A01FF309400FF307E011A
:1009E800CF00FF30D100D001D20100308125003086
:1009F800872508009825CD25003A0319042DED24F4
:100A08007E01CE013A164001121218160800F100B4
:100A18007108F00070084001BE000130F000700855
:100A2800FC0008007E0155094001A00020087E0155
:100A3800D5054E010C1208004001A3002308A200AE
:100A48002208C10023085A2508004001A100BC0162
:100A5800BD012108A0002008C5000800F3007308A4
:100A6800F20072084001C1007308682508007E0181
:100A78005509F0007008D5054E010C120800400118
:100A88004108F0007008F100C10171080800400138
:100A98003F08F0007008F100BF01710808007C08E9
:100AA8000319582D01300800003008004001A1004A
:100AB8002108A0002008C00008007E015508F000A9
:100AC80070084001BF040800F1007108F0007008C8
:100AD8004001C0000800640080010131890B702DBD
:100AE80000344001C301C201C401FD0108007E01B8
:100AF800D301D401D501D32508004001A000200866
:100B08007E01D30008004001A00020087E01D40027
:100B180008004301901299244301901608004001EF
:100B2800C101C001BF0108004001BE01C0239121DD
:100B38000800F00070087E01D3000800F00070087B
:100B48007E01D40008004001C301C201C4010800AD
:100B58008B018B170B17080043010F0E0139080092
:100B68004001BE01FC0108004001BC01BD010800B4
:100B780045018C018E170800FA2545018C010800F3
:100B88008B130B1308007E01530808007E015408DC
:100B9800080040014008080040013C0808004001E6
:100BA800BF0108004E01971408004E019710080075
:100BB8004E018D1008004E01171708004E01161639
:100BC80008004E01971408004E01971008004E01C6
:100BD8008D10080040014008080045018E130800E8
:100BE8007E01530808007E01540808004E010D13C9
:0A0BF8000800FD010800FC010800E0
:100F00000034013402340334043405340634073425
:100F1000083409340A340B340C340D340E340F34D5
:100F20001034113412341334143415341634173485
:100F3000183419341A341B341C341D341E341F3435
:100F4000FC01FD013C3084000030850009306F2534
:100F5000A03084000030850040306F257E104001B5
:100F6000642CF600D02F432508004B2508004001D3
:100F70000E08080040011408080040011A08080083
:100F8000F4250800F72508007E014F0808007E01BF
:100F9000520808007E01500808007E015108080030
:100FA0007608F400F5017508003A0319D82FFB2FD5
:100FB0007408003A0319B32F013A0319B52F033A05
:100FC0000319B72F013A0319BA2F073A0319BD2F96
:100FD000013A0319C02F033A0319C22F0E3A03191D
:100FE000C42F013A0319C72F033A0319CA2F013A34
:0E0FF0000319CD2FFB2F0130322500300800F1
:020000040001F9
:08000000FF3FFF3FFF3FFF3F00
:0A000E00CD3FEF3FFF3FFF3FFF3FF4
:00000001FF
