:0400000080312728FC
:100008007E1480314E010C1E1128863187268031DE
:1000180086315A268031400118124E018D1C1A284B
:100028008731092780318131142180314E010D1F1C
:1000380025288531422580318631B42680318731A3
:1000480018277E10090080312928FC01FD013C3069
:10005800840000308500093086319C268031A0302C
:10006800840000308500403086319C267E10400197
:100078008431322C40013E0C890C0339A90002302E
:10008800A935FF3E031D44282935AA002A08B700D0
:100098001408A9002908AE001A08A9002908AF0009
:1000A8008631E52680314001A9002908B000863153
:1000B800E82680314001A9002908B1007E014F08D7
:1000C8004001A9002908B2007E0152084001A90098
:1000D8002908B3007E0150084001A9002908B4008E
:1000E8007E0151084001A9002908B5008631DA26A9
:1000F80080314001B801083038020318A3283808B5
:10010800A9000130A935890B8628A0302907AA0043
:1001180037352A07AB002B08860087010030C03F1F
:10012800C13F38082E3E86008701010883319C2391
:10013800803101304001A9002908B8077F2886319D
:10014800EE2680314001A9002908B6003608C039DA
:10015800A900AA01A935AA0DA935AA0D3735A03ECF
:10016800860087012908C03F2A08C13F3608303970
:10017800A900AA01A90EAA0EF030AA0529080F396C
:10018800AA04F030A9053735A23E86008701290860
:10019800C03F2A08C13F36080C39A900AA01063019
:1001A800A935AA0D890BD4283735A43E86008701C6
:1001B8002908C03F2A08C13F36080339A900AA0107
:1001C8002908AA00A9013735A63E86008701290813
:1001D800C03F2A08C13FB801083038020318080098
:1001E80038082E3E860087010108A900AA013808B0
:1001F800AB000130AB35890BFE28A0302B07AC00D3
:1002080037352C07AD002D088600870129088104A1
:1002180041312A0881040130A9002908B807F028CB
:10022800430191120F1E282987310F27813186310A
:10023800B426813140011816B0307D06031D080030
:1002480086318E26FD010800400142080319332932
:100258004301921F0F1933294001C20108004301CD
:100268008F190F184629921B462940014208031D81
:1002780046298631DE260130FA007A084001C3009B
:10028800C401080043010F1CB2290130FA007A08A2
:100298004001C20043010C08FA007A08FB00400143
:1002A8004408031D6C2900308631952681314301AD
:1002B8000F1DA02907307D02031CA02908307D02EC
:1002C800031C6A290C307D02031CA02903309D29D8
:1002D80043010F19AB298631C926813140014403F6
:1002E800031D84297B08FA007A08FD00A1307D06E9
:1002F80003198229A2307D06031DA02906309D29F5
:100308007B08FA007A08F6007D088231EC228131F8
:1003180087310C278131003A031D97290130FA00F3
:100328007A08FD07A029023040014406031DA029D0
:10033800043086313F26813187310C278131003ADC
:100348000319A92943019116AB29430191121016EB
:100358000130FA007A084001C40708004001430848
:100368000319080043010F1D0800111B08008631FE
:10037800C92681317D0883314923813143018C00AD
:1003880087310C278131003A031DCE290130FA004C
:100398007A08FD07430110160130FA007A08400177
:1003A800C40708004001B7013E080339A90002301C
:1003B800A935FF3E031DDC292935AA002A08B80003
:1003C800B9018631DA268131043040013902031837
:1003D800582A3708A9000130A935FF3E031DF02926
:1003E8002935AA002A08B7003808A9000130A9351C
:1003F800890BFB29A0302907AA0039352A07AB0049
:100408002B0886008701403FAC00413FAD002D0816
:10041800AE002E08B7043808A9000130A935890BA9
:10042800122AA0302907AA0039352A07AB002B0861
:10043800860087010108AC0039082F3E8600870135
:100448002C08810039082F3E860087010108833176
:100458009C23813101304001A9002908B907E82906
:100468003808A9000130A935890B372AA030290797
:10047800AA0039352A07AB002B0886008701010836
:10048800AC0039082F3E860087012C088100390806
:100498002F3E86008701010883319C23813101307A
:1004A8004001A9002908B90708303902031C342A79
:1004B8008631EE26813140013706031D862A2F0832
:1004C800940030089A0031088631A826813140010D
:1004D80032088631AE268131400133087E01CF00D3
:1004E800400134087E01D200400135087E01D00069
:1004F800400136087E01D1008631352681318631AA
:10050800F12608000A3086312B2608008631E226BB
:1005180082314001181687311B27823185316425C5
:100528008231003A0319BE2AC62A8431F72482315F
:10053800D32A8531E7258231BE2A80313E20823197
:100548008531D12582318331EC238231BE2A853130
:1005580020258231BB2A80313E20823185312025F9
:1005680082318531D12582318331EC238231813149
:10057800D62182318631FA2682318631CE26400153
:1005880018120800003086312B26823187311D274A
:10059800823140013E0E0339003A031D992A400179
:1005A8003E0E0339BA00BB013B08003A0319DD2AA5
:1005B800BE2A3A08003A03199D2A013A0319A12ACA
:1005C800033A0319AB2A013A0319AF2ABE2A0800D5
:1005D800F9001A2B760840019400080076084001BB
:1005E8009A00080076088631BF260800760886310A
:1005F800C426080076087E01CF00080076087E0130
:10060800D200080076087E01D000080076087E0136
:10061800D100080076088631202608007608843143
:100628009B240800023086313F2608007908F7002D
:10063800F8017808003A0319222B162B7708033A99
:100648000319EE2A073A0319F22A013A0319F62A7E
:10065800033A0319FA2A0E3A0319FE2A013A031932
:10066800022B033A0319062B013A03190A2BAB3A5A
:1006780003190E2B013A0319122B033A0319122BF3
:10068800123A0319152B162B0800F6006C2B86312D
:100698006226080086316A26080040010E08080014
:1006A80040011408080040011A0808008731122781
:1006B80008008731152708007E014F0808007E01D1
:1006C800520808007E01500808007E015108080001
:1006D8007608F400F5017508003A0319742B972B76
:1006E8007408003A03194B2B013A03194E2B033AAD
:1006F8000319512B013A0319542B073A0319572BA5
:10070800013A03195A2B033A03195D2B0E3A0319C0
:10071800602B013A0319632B033A0319662B013A3C
:100728000319692B972B013086313F2600300800CA
:100738004001A5004508A000A1010730A035A10D82
:10074800890BA22B00302004A70080302104A800C8
:100758000F30A0002008A600FF303C05A0000030A4
:100768003D05A10020082506A2002108A3002208B3
:10077800A300A2012208BC002308BD003D08A10077
:100788003C08A0002108A000A101200821040319A9
:1007980008003D08A1003C08A000260AD52BA13678
:1007A800A00C890BD32B200821040319DF2B270861
:1007B800BC062808BD062808A1002708A000A13605
:1007C800A00C2008A7002108A8000130A602C22B0F
:1007D8008631EB268331003A031D080050019E0143
:1007E8001E131F309B0080309A001E129E161E1585
:1007F8004001A8012835A03E86008701403F5001EE
:100808009C00413F9D001F3040012806031D0E2C0F
:1008180050019E12553050019F00AA309F009E142F
:100828001F304001280603191E2C0130A700270895
:1008380050019A0701304001A7002708A807203077
:100848002802031CFE2B50019E1255309F00AA302F
:100858009F009E141E118431682408000430510141
:1008680093008631BA26843107308631492684318F
:100878008631D62684318531FD2584318431CD24D5
:10088800843186310F2684318631FD2684318631C4
:10089800A22684318731002784318631CE268431DF
:1008A800630000008631D2268431003A0319562CA1
:1008B800863172268431003A0319652C82318A22E6
:1008C800843163000000562C50019E011E131F3016
:1008D8009B0080309A004001A60150011E1440017F
:1008E8002635A03E86008701403FA400413FA50071
:1008F80050011D0840012506031D862C50011C08C7
:100908004001240603198C2C0B3086312B26080055
:10091800013050019A0700309B3D01304001A4008E
:100928002408A6072030260203180800712CF500B9
:100938007C03031DB02CA5307506031DA82C0230BE
:10094800F4007408FC000800FF30F4007408FC0090
:10095800093086313F26080002307C06031DC52C6D
:10096800F0307506031DBD2C0330F4007408FC003C
:100978000800FF30F4007408FC00093086313F2677
:100988000800FF30F4007408FC00093086313F2667
:1009980008008631F726843143019001853182258C
:1009A800843143018F018F170F131008F03906386F
:1009B8009000910191139112111691151110920145
:1009C8001217921692119214121485319F258431B0
:1009D800FE3043018E008631FA2684318631F426B2
:1009E8004301901608008631EB268431003A031D36
:1009F800080050019E011E131F309B0080309A0092
:100A08004001A10150011E1440012135A03E86007D
:100A1800870150011C08C03F1D08C13F01309A07DB
:100A280000309B3D01304001A0002008A107203084
:100A3800210203180800062D40013E0E890C890C7E
:100A48000339013A031D2B2D94019A0108003E0E2B
:100A5800890C890C0339023A031D362D9401FF30A5
:100A68009A0008003E0E890C890C0339033A031DCD
:100A78000800FF3094007E01CF0108008731062767
:100A88008531430190018F018F170F131008F0393A
:100A980006389000910191139112111691151110B9
:100AA800920112179216921192141214FE308E00AF
:100AB80087310927853187310327430190160800BC
:100AC80003307C06031D7A2D8631EB268531003AEA
:100AD8000319782D083086312B26853187311D275B
:100AE8004001181200300800013008000730863134
:100AF8002B26853187311D27003008004001131748
:100B080013167E014313431208309C0007309E00E1
:100B1800013042018C0001308D000C307D01C6008F
:100B28000E30C50040011214921412157E013810BF
:100B3800B8103811080040010C0C890C0139A000CC
:100B48000330A035890BA52D0C0C0139A10002300A
:100B5800A135890BAC2D0C080139090721042004A3
:100B6800C03843018D00080040010C0C890C013984
:100B7800F0000330F035890BBE2D0C0C0139F10063
:100B88000230F135890BC52D0C08013909077104AC
:100B98007004C03843018D0008008631EB2685318A
:100BA800003A031D080050019E011E131F309B00D0
:100BB80080309A001E161E1555309F00AA309F00DF
:100BC8009E141E11080086317926853140019A014C
:100BD800FF309400FF307E01CF00FF30D100D001FC
:100BE800D20100308631A826853100308631AE2604
:100BF80008008631522685318631EB268531003A48
:100C08000319082E8531E7257E01CE013A164001E9
:100C180012121816080045018E010E088F39403847
:100C28008E008F010F08E03908388F008F170430C5
:100C3800900034308D000800F1007108F000700851
:100C48004001BE000130F0007008FC0008004001BF
:100C5800A3002308A2002208C100230886318026A9
:100C680008007E0155094001A00020087E01D50535
:100C78004E010C120800F3007308F20072084001DC
:100C8800C10073088631952608004001A100BC0107
:100C9800BD012108A0002008C50008004001BE01D0
:100CA8008431F72486318131D62108007E01550927
:100CB800F0007008D5054E010C12080040014108EB
:100CC800F0007008F100C1017108080040013F08F8
:100CD800F0007008F100BF01710808007C080319D2
:100CE800772E01300800003008007E01D301D401BE
:100CF800D5018631F12608004001A1002108A00095
:100D08002008C00008007E015508F0007008400166
:100D1800BF040800430190128531B825430190169D
:100D28000800F1007108F00070084001C0000800D8
:100D3800640080010131890B9D2E00344001C301FC
:100D4800C201C401FD0108004001A00020087E0185
:100D5800D30008004001A00020087E01D40008004C
:100D68004001C301C201C401FD0108004001C101E5
:100D7800C001BF010800F00070087E01D300080020
:100D8800F00070087E01D40008008731182745015B
:100D98008C0108008B018B170B17080043010F0EFD
:100DA800013908004001BE01FC0108004001BC01F6
:100DB800BD01080045018C018E1708008B130B1329
:100DC80008007E01530808007E015408080040010D
:100DD8004008080040013C0808004001BF01080025
:100DE8004E01971408004E01971008004E018D100F
:100DF80008004E01171708004E01161608004E018C
:100E0800971408004E01971008004E018D10080035
:100E180040014008080045018E1308007E01530870
:100E280008007E01540808004E010D130800FD015A
:060E38000800FC010800A7
:103F000000340134023403340434053406340734F5
:103F1000083409340A340B340C340D340E340F34A5
:103F20001034113412341334143415341634173455
:103F3000183419341A341B341C341D341E341F3405
:020000040001F9
:08000000FF3FFF3FFF3FFF3F00
:0A000E00CD3FEF3FFF3FEF3FFF3F04
:00000001FF
