:020000040000FA
:040000008031202803
:100008007E1480314E010C1E0A280B2813288631D5
:10001800F22680318631CB268031400118124E01FC
:100028008D1C172818281E288731542780318031C5
:10003800382080317E10090080312228FC01FD0122
:100048003C3084000030850008308731002780313B
:10005800A03084000030850040308731002780318F
:100068007E10400185310E2D430191120F1E3D284F
:100078003E284E284001C201C3011816B0307D0643
:10008800031D4728482836298631D3268031FD01AB
:10009800362936294001430C0339013A031D5528F6
:1000A800562863284301921B5A285B2863280F1996
:1000B8005E285F286328F9304001C30536294301CB
:1000C8008F1D672868287B280F186B286C287B28C9
:1000D800921B6F2870287B284001430C0339003A93
:1000E800031D772878287B284314C2013629430149
:1000F8000F1C7F2880280F2940014308F93902384E
:10010800C30043010C08FA007A08FB0040014208CA
:10011800031D8F289028BC2800308631F9268031AD
:1001280043010F1D98289928AF2807307D02031C2A
:100138009E289F28AF2808307D02031CA428A528E4
:10014800AB280C307D02031CAA28AB28AF2803304B
:10015800863193268031873157278031003A031D35
:10016800B628B92843019116BB28430191120829E2
:1001780043010F19C028C128082940014203031D63
:10018800C628C728DC287B08FA007A08FD00A130B9
:100198007D060319D028D128D728A2307D06031D53
:1001A800D628D728FC280630863193268031FC28AB
:1001B8007B08FA007A08F6007D08833139238031FC
:1001C800873157278031003A031DEB28EC28F128A6
:1001D8000130FA007A08FD07FC2802304001420687
:1001E800031DF728F828FC2804308631932680312F
:1001F800873157278031003A031D03290629430117
:10020800911608294301911210160130FA007A0854
:100218004001C20736294001431C132914294D28DF
:1002280043010F1D182919294D28111B1C291D29A7
:100238004D287D0883319C23803143018C00873110
:1002480057278031003A031D2A292B292F290130ED
:10025800FA007A08FD07430110160130FA007A08FF
:100268004001C207080040013E0C890C0339A9006F
:100278000230A935FF3E031D3D292935AA002A0869
:10028800B7001408A9002908AE001A08A90029080F
:10029800AF008731392781314001A9002908B00012
:1002A80087313C2781314001A9002908B1007E012E
:1002B8004F084001A9002908B2007E0152084001F8
:1002C800A9002908B3007E0150084001A9002908A7
:1002D800B4007E0151084001A9002908B500873102
:1002E800322781314001B80198293808A900013026
:1002F800A935890B7C29A0302907AA0037352A0798
:10030800AB002B08860087010030C03FC13F38088A
:100318002E3E8600870101088331F42381310130A4
:100328004001A9002908B80708303802031C9D2994
:100338009E2979298731422781314001A90029085E
:10034800B6003608C039A900AA01A935AA0DA935F1
:10035800AA0D3735A03E860087012908C03F2A0824
:10036800C13F36083039A900AA01A90EAA0EF030FB
:10037800AA0529080F39AA04F030A9053735A23E85
:10038800860087012908C03F2A08C13F36080C3972
:10039800A900AA010630A935AA0D890BCF2937353E
:1003A800A43E860087012908C03F2A08C13F3608B5
:1003B8000339A900AA012908AA00A9013735A63ED0
:1003C800860087012908C03F2A08C13FB8010B2AC7
:1003D80038082E3E860087010108A900AA013808BE
:1003E800AB000130AB35890BF629A0302B07AC00E8
:1003F80037352C07AD002D088600870129088104B0
:1004080041312A0881040130A9002908B8070830B9
:100418003802031C102A112AEC2908004001B701F0
:100428003E080339A9000230A935FF3E031D182AEA
:100438002935AA002A08B800B90187313227823144
:100448006B2A3708A9000130A935FF3E031D282A69
:100458002935AA002A08B7003808A9000130A935AB
:10046800890B332AA0302907AA0039352A07AB009F
:100478002B0886008701403FAC00413FAD002D08A6
:10048800AE002E08B7043808A9000130A935890B39
:100498004A2AA0302907AA0039352A07AB002B08B9
:1004A800860087010108AC0039082F3E86008701C5
:1004B8002C08810039082F3E860087010108833106
:1004C800F423823101304001A9002908B90704301A
:1004D80040013902031C712A722A252A972A3808F2
:1004E800A9000130A935890B762AA0302907AA006E
:1004F80039352A07AB002B08860087010108AC00B4
:1005080039082F3E860087012C08810039082F3EC4
:100518008600870101088331F423823101304001CC
:10052800A9002908B90708303902031C9C2A9D2A0A
:10053800732A87314227823140013706031DA52AD5
:10054800A62ACA2A2F08940030089A003108873151
:10055800062782314001320887310C278231400159
:1005680033087E01CF00400134087E01D2004001EB
:1005780035087E01D000400136087E01D100863161
:100588009E268231873145278231CE2A0A3086312C
:100598007D268231080087313627823140011816BE
:1005A8008731602782318531C5258231003A031DA4
:1005B800DE2ADF2AE82A87314E278231873126272B
:1005C800823140011812382B003086317D26823165
:1005D80087316227823140013E0E0339003A031900
:1005E800F62AF72A202B853144258231202B8631A3
:1005F80051268231DF2A8131372182318631062620
:100608008231843149248231DF2A85319D25823126
:10061800823112228231DF2A8131372182318531BC
:100628009D258231863106268231843149248231E2
:10063800823112228231DF2A40013E0E0339BA008C
:10064800BB013B08003A03192A2BDF2A3A08003A73
:100658000319FB2A013A0319FF2A033A0319092B44
:10066800013A0319102BDF2A0800F9006D2B7608D0
:10067800400194009B2B760840019A009B2B76083A
:1006880087311C2783319B2B7608873121278331BB
:100698009B2B76087E01CF009B2B76087E01D2002B
:1006A8009B2B76087E01D0009B2B76087E01D1001B
:1006B8009B2B76088631882683319B2B76088431DC
:1006C800992483319B2B9B2B0230863193268331CF
:1006D8009B2B7908F700F8017808003A0319752B65
:1006E800682B7708033A03193B2B073A03193F2B6A
:1006F800013A0319432B033A0319482B0E3A0319FD
:100708004D2B013A0319512B033A0319552B013A82
:100718000319592BAB3A03195D2B013A0319622BC4
:10072800033A0319622B123A0319672B682B080046
:10073800F600C32B8631DB268331F32B8631E32683
:100748008331F32B40010E08F32B40011408F32BDF
:1007580040011A08F32B87315A278331F32B87314D
:100768005D278331F32B7E014F08F32B7E0152085E
:10077800F32B7E015008F32B7E015108F32B7608EA
:10078800F400F5017508003A0319CB2BEE2B740819
:10079800003A03199E2B013A0319A22B033A0319B5
:1007A800A62B013A0319A92B073A0319AC2B013AD6
:1007B8000319AF2B033A0319B32B0E3A0319B72BBE
:1007C800013A0319BA2B033A0319BD2B013A03194D
:1007D800C02BEE2B01308631932683310030080080
:1007E8004001A5004408A000A1010730A035A10DD3
:1007F800890BFA2B00302004A70080302104A800C0
:100808000F30A0002008A600FF303C05A0000030F3
:100818003D05A10020082506A2002108A300220802
:10082800A300A2012208BC002308BD003B2C3D0800
:10083800A1003C08A000260A232CA136A00C890B95
:10084800212C2008210403192A2C2B2C2F2C2708B3
:10085800BC062808BD062808A1002708A000A13664
:10086800A00C2008A7002108A8000130A6023D0816
:10087800A1003C08A0002108A000A1012008210433
:10088800031D472C482C1B2C080087313F27843137
:10089800003A0319502C512C522C982C50019E01CF
:1008A8001E131F309B0080309A001E129E161E15C4
:1008B8004001A8012835A03E86008701403F50012D
:1008C8009C00413F9D001F3040012806031D6D2CF0
:1008D8006E2C702C50019E12553050019F00AA308A
:1008E8009F009E141F304001280603197C2C7D2C84
:1008F800822C0130A700270850019A0701304001D7
:10090800A7002708A80720302802031C8C2C8D2C50
:100918005E2C50019E1255309F00AA309F009E14F5
:100928001E118431D62484310800F5007C03031D90
:100938009E2C9F2CB32CA5307506031DA42CA52C2A
:10094800AA2C0230F4007408FC00D52CFF30F40007
:100958007408FC000930863193268431D52C023086
:100968007C06031DB82CB92CCD2CF0307506031D60
:10097800BE2CBF2CC42C0330F4007408FC00D52C0A
:10098800FF30F4007408FC00093086319326843166
:10099800D52CFF30F4007408FC000930863193260A
:1009A8008431080050019E011E131F309B008030C7
:1009B8009A004001A60150011E1440012635A03EB0
:1009C80086008701403FA400413FA50050011D0853
:1009D80040012506031DF42C50011C084001240683
:1009E8000319F72CF82CFD2C0B3086317D26843129
:1009F8000D2D013050019A0700309B3D0130400118
:100A0800A4002408A60720302602031C0C2D0D2D57
:100A1800DF2C0800043051019300873117278531F6
:100A280007308631BA26853187312E2785318631C0
:100A380068268531853172258531873112278531C0
:100A4800873151278531873126278531630000009A
:100A580087312A278531003A0319332D342D2C2D5F
:100A68008631A8268531003A03193B2D3C2D3F2DB0
:100A78008231CF228531630000002C2D803120285F
:100A880087313F278531003A03194B2D4C2D4D2DC9
:100A9800712D50019E011E131F309B0080309A005B
:100AA8004001A10150011E1440012135A03E8600DD
:100AB800870150011C08C03F1D08C13F01309A073B
:100AC80000309B3D01304001A0002008A1072030E4
:100AD8002102031C702D712D562D080087314B27DC
:100AE8008531430190018531E925853143018F0125
:100AF8008F170F131008F0390638900091019113E1
:100B08009112111691151110920112179216921145
:100B18009214121486311F268531FE3043018E004F
:100B280087314E2785318731482785314301901613
:100B3800080040013E0E890C890C0339013A031D57
:100B4800A62DA72DAA2D94019A01C42D3E0E890C1D
:100B5800890C0339023A031DB22DB32DB72D940128
:100B6800FF309A00C42D3E0E890C890C0339033AD4
:100B7800031DBF2DC02DC42DFF3094007E01CF0171
:100B8800080003307C06031DCA2DCB2DE02D8731CC
:100B98003F278531003A0319D22DD32DDE2D083099
:100BA80086317D26853187316227853140011812CB
:100BB8000030E82D0130E82D073086317D2685315B
:100BC800873162278531003008004001131713165A
:100BD8007E014313431208309C0007309E00013009
:100BE80042018C0001308D000C307D01C6000E30B2
:100BF800C50040011214921412157E013810B81065
:100C08003811080087313F278631003A03190D2E25
:100C18000E2E0F2E1E2E50019E011E131F309B00FC
:100C280080309A001E161E1555309F00AA309F006E
:100C38009E141E11080040010C0C890C0139A000FB
:100C48000330A035890B252E0C0C0139A100023088
:100C5800A135890B2C2E0C08013909072104200421
:100C6800C03843018D00080040010C0C890C013983
:100C7800F0000330F035890B3E2E0C0C0139F100E1
:100C88000230F135890B452E0C080139090771042A
:100C98007004C03843018D0008008631C3268631B0
:100CA80040019A01FF309400FF307E01CF00FF30F1
:100CB800D100D001D20100308731062786310030BB
:100CC80087310C27863108008631B1268631873175
:100CD8003F278631003A0319722E732E762E8631FD
:100CE800512686317E01CE013A164001121218169D
:100CF80008004001A3002308A2002208C10023081D
:100D08008631EB2686310800F1007108F000700882
:100D18004001BE000130F0007008FC000800F3003C
:100D28007308F20072084001C10073088631F92681
:100D3800863108007E0155094001A00020087E0187
:100D4800D5054E010C1208007C080319AC2EAD2EF7
:100D5800AF2E0130B02E003008004001BE018531B1
:100D68004425863182311222863108004001A100D3
:100D7800BC01BD012108A0002008C40008007E01B4
:100D8800D301D401D50187314527863108007E017A
:100D98005509F0007008D5054E010C1208004301F2
:100DA800901286313826863143019016080040019A
:100DB8004108F0007008F100C10171080800400105
:100DC8003F08F0007008F100BF01710808004001F9
:100DD800A1002108A0002008C00008007E015508D5
:100DE800F00070084001BF040800F1007108F0002D
:100DF80070084001C0000800640080010131890BBF
:100E0800012F00344001A00020087E01D300080013
:100E18004001A00020087E01D40008004001C30161
:100E2800C201FD0108004001C101C001BF01080065
:100E3800F00070087E01D3000800F00070087E0101
:100E4800D40008008B018B170B17080043010F0E05
:100E5800013908004001BE01FC0108004001BC0145
:100E6800BD0108008B130B1308007E01530808000E
:100E78007E015408080040014008080040013C0871
:100E880008004001BF0108004E01971408004E01F8
:100E9800971008004E018D1008004E011616080024
:100EA8004E018D1008004001400808007E015308DB
:100EB80008007E0154080800FD010800FC01080034
:103F000000340134023403340434053406340734F5
:103F1000083409340A340B340C340D340E340F34A5
:103F20001034113412341334143415341634173455
:103F3000183419341A341B341C341D341E341F3405
:020000040001F9
:04000E00CD3FEF3FB4
:04001400EF3FFF3F7C
:00000001FF
