:080000008031022887311D2F19
:100E3A00F801F901FA014001222F54278731362798
:100E4A008731FB014E27873148278731F601F701A1
:100E5A00F60A0319F70A760F2D2F770A0319272F97
:100E6A002D2F430190018F01910192018F171008D4
:100E7A00F039083890004F308D004E018D109710D0
:100E8A004301901608007830F30060306527FB00B4
:100E9A0008000330F3006030AB27FB00080013168C
:100EAA0013177E01431243134516451708309C0059
:100EBA0007309E000C307D01C6000E30C5000800C8
:100ECA00F500F2004301F0278731031D672F6E2FCB
:100EDA00672F111411186F2F732F6F2F0314720DB0
:100EEA008C00F0278731031D762F7C2F762F111F58
:100EFA008A2F802F8A2F1115E8278731031D812F0A
:100F0A00872F812F000000308B2F0130003A031900
:100F1A000034430191150F0C890C0139F4001108B2
:100F2A001F397404031D902F7308860087010C086B
:100F3A00810091161116111AA02F1115E827873171
:100F4A00031DA32FA92FA32F00000134F500F200DF
:100F5A004301F8278731031DAD2FB42FAD2F11148C
:100F6A001118B52FB92FB52F72358C00F827873194
:100F7A00031DBB2FC12FBB2F111FCF2FC52FCF2F63
:100F8A001115E8278731031DC62FCC2FC62F000065
:100F9A000030D02F0130003A03190034730843019E
:100FAA008C000F0C890C0139F40011081F397404E4
:100FBA00031DD62F1115E8278731031DE02FE62FD1
:100FCA00E02F000001340F0C890C0139F0001108E0
:100FDA001F39700408000F0C890C0139F10011083F
:100FEA001F39710408000F0C890C0139F10011082E
:060FFA001F39710408001C
:020000040001F9
:04000E00CD3FE73FBC
:04001400FF3FFF3F6C
:00000001FF
