:04000000803117280C
:100008007E1480314E018C1A8C128D1A8D120D1BA4
:100018000D130D180D100C1E15287E01BF014E0181
:100028000C127E100900803119284001A001A1019D
:10003800A201A3017E10400121284F2080317F209A
:100048008031742080315F2080318B2080310430F2
:100058005B208031492080317D20803172208031C1
:1000680070208031FF30C6208031FF3099208031E8
:100078008820803163000000630000004C2080313C
:10008800F90004308E2080313E284E0117140800F4
:1000980041011C08080041019D011D080339483829
:1000A8009D009E0170309E049F011D140800F00001
:1000B80041019F000800400112157E01B801391561
:1000C800BF010430BE004001181212121414141596
:1000D8007E014E144E1508008B1708000B170800F8
:1000E8004E019601970198018C018D018E018B01BB
:1000F80008001717080045018E018F010430900091
:100108009101FF308D00080045018E170800A420DA
:100118008031D128FA004001A0007908A1002030E0
:10012800F3000230F40060305329FB000430BB2098
:100138008031FC007B09FC057C08F90004308E281E
:100148004001131613177E01431243134516451732
:10015800213042018C008D0008307E019C00073060
:100168009E000C307D01C6000E30C5000800FA0064
:10017800F3002030F4006030F501F50AE320400177
:1001880020080800FB000330BB208031FC007B09FD
:10019800FC057C08F90003308E28430190018F018B
:1001A800910192018F171008F039083890004F30EC
:1001B8008D004E018D109710430190160800F8002D
:1001C800F2004301A2218031031DE528EC28E5282F
:1001D80011141118ED28F128ED2872358C00A22190
:1001E8008031031DF328F928F328111F0829FD2859
:1001F800082943011115B2218031031DFF28052963
:10020800FF280000003009290130003A03190800CE
:10021800730843018C00AA218031031D0F29911412
:10022800911814290314780D8C00AA218031031D1C
:100238001929111F292943011115B2218031031DE4
:1002480021292729212900000800F90175087902C8
:1002580003181F299115AA218031031D2F29790818
:100268007407F600860087010C0881007508FF3EB8
:10027800F600FF3003180030F70079087606770497
:10028800031D4B2991161116111E51294829911247
:100298001116AA218031031D4D29F90A2A29F700D0
:1002A800F2004301A2218031031D55295C295529FB
:1002B800111411185D2961295D2972358C00A2215C
:1002C8008031031D632969296329111F78296D2944
:1002D800782943011115B2218031031D6F29752931
:1002E8006F290000003079290130003A031908000D
:1002F800F801740878020318982978087307F5003C
:1003080086008701010843018C000F0C890C013914
:10031800F50011081F397504031D8929111F962935
:100328007408F800F80A7D2943011115B2218031BB
:10033800031D9A29A0299A29000008000F0C890C8E
:100348000139F10011081F39710408000F0C890CDC
:100358000139F60011081F39760408000F0C890CC2
:0C0368000139F00011081F397004080072
:020000040001F9
:08000000FF3FFF3FFF3FFF3F00
:0A000E00CD3FE53FFF3FFF3FFF3FFE
:00000001FF
