:0400000080312528FE
:100008007E1480314E018C1E0A280B280C288C1275
:100018008D1E0F28102811288D120D1F1428152841
:1000280016280D130D1C19281A281B280D100C1E34
:100038001E281F2823287E01BF014E010C127E10A6
:100048000900803127284001A001A101A201A301D4
:100058007E1040018031AA28F800780881311D21DE
:100068008031003A031D39283A283B28A92873080B
:1000780043018C000F0C890C0139F60011081F3957
:100088007604031D482849283E28911491184D28C4
:100098004E284A280314780D8C000F0C890C01395E
:1000A800F60011081F397604031D5B285C285128C7
:1000B800111F5F28602864288131D9218031A9283F
:1000C800F901A22891150F0C890C0139F6001108C5
:1000D8001F397604031D7128722867280C08F6005A
:1000E80079087407F7007708860087017608810089
:1000F8007508FF3EF600FF3003180030F700790856
:1001080076067704031D89288A28912891161116E6
:10011800111A8F2890288C289E28911211160F0CDE
:10012800890C0139F60011081F397604031D9D2832
:100138009E2893280130F6007608F9077508790299
:10014800031CA728A8286628602808008131E82110
:1001580080318131F42180318131FD21803181313B
:10016800C8218031823106228031043082310D224B
:10017800803182311B2280318231152280318231D7
:100188001E228031823120228031FF3081315F216F
:100198008031FF30813176218031823112228031E5
:1001A80063000000630000008231182280314001A2
:1001B800A6002608F800043081318D218031D4282A
:1001C80080312528F600760881311D218031003ADA
:1001D800031DEF28F028F1281C29F70113297708B7
:1001E8007307F500750886008701010843018C0034
:1001F8000F0C890C0139F50011081F397504031D0E
:1002080006290729FC28111F0A290B290F29740818
:10021800F5007508F7000130F5007508F707740850
:100228007702031C18291929F3288131D921803133
:100238000800F20043010F0C890C0139F100110884
:100248001F397104031D29292A291E29111411187F
:100258002E292F292B2972358C000F0C890C013976
:10026800F10011081F397104031D3B293C2931296C
:10027800111F3F29402945298131D9218131003079
:100288004629013008004001131613177E01431256
:10029800431345164517213042018C0021308D004B
:1002A80008307E019C0007309E000C307D01C6009E
:1002B8000E30C50008004001A40003308131A4219C
:1002C8008131FD007D084001A5002409FD007D085D
:1002D800A5052508FD007D08F800033081318D2132
:1002E800813108004001A40004308131A42181310A
:1002F800FD007D084001A5002409FD007D08A50535
:100308002508FD007D08F800043081318D218131F8
:100318000800FB007B08F90079084001A000780874
:10032800F9007908A1002030F9007908F3000230BB
:10033800FA007A08F40060308031E6208131080044
:10034800FC007C08FA007A08F3002030FB007B08E8
:10035800F400F501F50A6030803130208131400128
:1003680020080800430190018F01910192018F1725
:100378001008F039083890004F308D004E018D106C
:100388009710430190160800400112157E01B8012C
:100398003915BF010430BE0040011812121214149E
:1003A80014157E014E144E150800430111150F0C4B
:1003B800890C0139F00011081F397004031DE52963
:1003C800E629DB290000080041019D011D080339C9
:1003D80048389D009E0170309E049F011D1408003E
:1003E80045018E018F01043090009101FF308D008E
:1003F80008004E019601970198018C018D018E012C
:100408008B0108008131472182318131B621823147
:100418000800F000700841019F00080045018E1790
:1004280008004E011717080041011C0808004E017A
:0C043800171408000B1708008B170800B1
:020000040001F9
:08000000FF3FFF3FFF3FFF3F00
:0A000E00CD3FE53FFF3FFF3FFF3FFE
:00000001FF
