:0400000080312528FE
:100008007E1480314E018C1E0A280B280C288C1275
:100018008D1E0F28102811288D120D1F1428152841
:1000280016280D130D1C19281A281B280D100C1E34
:100038001E281F2823287E01BF014E010C127E10A6
:100048000900803127284001A001A101A201A301D4
:100058007E1040018031AA28F800780881311521E6
:100068008031003A031D39283A283B28A92873080B
:1000780043018C000F0C890C0139F60011081F3957
:100088007604031D482849283E28911491184D28C4
:100098004E284A280314780D8C000F0C890C01395E
:1000A800F60011081F397604031D5B285C285128C7
:1000B800111F5F28602864288131D1218031A92847
:1000C800F901A22891150F0C890C0139F6001108C5
:1000D8001F397604031D7128722867280C08F6005A
:1000E80079087407F7007708860087017608810089
:1000F8007508FF3EF600FF3003180030F700790856
:1001080076067704031D89288A28912891161116E6
:10011800111A8F2890288C289E28911211160F0CDE
:10012800890C0139F60011081F397604031D9D2832
:100138009E2893280130F6007608F9077508790299
:10014800031CA728A8286628602808008131E02118
:1001580080318131EC2180318131F521803181314B
:10016800C02180318131FE21803104308231052265
:10017800803182311322803182310D2280318231E7
:1001880016228031823118228031FF308131572187
:100198008031FF3081316E21803182310A228031F5
:1001A80063000000630000008231102280314001AA
:1001B800A6002608F8000430813185218031D42832
:1001C80080312528F6007608813115218031003AE2
:1001D800031DEF28F028F1281429F7010B297708C7
:1001E8007307F500750886008701010843018C0034
:1001F8000F0C890C0139F50011081F397504031D0E
:1002080006290729FC280130F5007508F707740846
:100218007702031C10291129F3288131D12180315B
:100228000800F20043010F0C890C0139F100110894
:100238001F397104031D21292229162911141118A7
:1002480026292729232972358C000F0C890C01399E
:10025800F10011081F397104031D33293429292994
:10026800111F372938293D298131D12181310030A9
:100278003E29013008004001131613177E0143126E
:10028800431345164517213042018C0021308D005B
:1002980008307E019C0007309E000C307D01C600AE
:1002A8000E30C50008004001A400033081319C21B4
:1002B8008131FD007D084001A5002409FD007D086D
:1002C800A5052508FD007D08F8000330813185214A
:1002D800813108004001A400043081319C21813122
:1002E800FD007D084001A5002409FD007D08A50545
:1002F8002508FD007D08F800043081318521813111
:100308000800FB007B08F90079084001A000780884
:10031800F9007908A1002030F9007908F3000230CB
:10032800FA007A08F40060308031E6208131080054
:10033800FC007C08FA007A08F3002030FB007B08F8
:10034800F400F501F50A6030803130208131400138
:1003580020080800430190018F01910192018F1735
:100368001008F039083890004F308D004E018D107C
:100378009710430190160800400112157E01B8013C
:100388003915BF010430BE004001181212121414AE
:1003980014157E014E144E150800430111150F0C5B
:1003A800890C0139F00011081F397004031DDD297B
:1003B800DE29D3290000080041019D011D080339E9
:1003C80048389D009E0170309E049F011D1408004E
:1003D80045018E018F01043090009101FF308D009E
:1003E80008004E019601970198018C018D018E013C
:1003F8008B01080081313F2181318131AE2181316A
:100408000800F000700841019F00080045018E17A0
:1004180008004E011717080041011C0808004E018A
:0C042800171408000B1708008B170800C1
:020000040001F9
:08000000FF3FFF3FFF3FFF3F00
:0A000E00CD3FE53FFF3FFF3FFF3FFE
:00000001FF
